{
  "contractName": "BuidlAmsToken",
  "abi": [
    {
      "constant": false,
      "inputs": [
        {
          "name": "_contract",
          "type": "address"
        },
        {
          "name": "_timeStamp",
          "type": "uint256"
        }
      ],
      "name": "setFundsContract",
      "outputs": [],
      "payable": false,
      "stateMutability": "nonpayable",
      "type": "function"
    },
    {
      "constant": true,
      "inputs": [],
      "name": "mintingFinished",
      "outputs": [
        {
          "name": "",
          "type": "bool"
        }
      ],
      "payable": false,
      "stateMutability": "view",
      "type": "function"
    },
    {
      "constant": true,
      "inputs": [],
      "name": "name",
      "outputs": [
        {
          "name": "",
          "type": "string"
        }
      ],
      "payable": false,
      "stateMutability": "view",
      "type": "function"
    },
    {
      "constant": false,
      "inputs": [
        {
          "name": "_account",
          "type": "address"
        },
        {
          "name": "_ipfsHash",
          "type": "string"
        },
        {
          "name": "_timeStamp",
          "type": "uint256"
        }
      ],
      "name": "addAdmin",
      "outputs": [],
      "payable": false,
      "stateMutability": "nonpayable",
      "type": "function"
    },
    {
      "constant": false,
      "inputs": [
        {
          "name": "_spender",
          "type": "address"
        },
        {
          "name": "_value",
          "type": "uint256"
        }
      ],
      "name": "approve",
      "outputs": [
        {
          "name": "",
          "type": "bool"
        }
      ],
      "payable": false,
      "stateMutability": "nonpayable",
      "type": "function"
    },
    {
      "constant": true,
      "inputs": [],
      "name": "totalSupply",
      "outputs": [
        {
          "name": "",
          "type": "uint256"
        }
      ],
      "payable": false,
      "stateMutability": "view",
      "type": "function"
    },
    {
      "constant": true,
      "inputs": [
        {
          "name": "_sellAmount",
          "type": "uint256"
        },
        {
          "name": "_tokenBalance",
          "type": "uint256"
        }
      ],
      "name": "calculateSellReturn",
      "outputs": [
        {
          "name": "",
          "type": "uint256"
        }
      ],
      "payable": false,
      "stateMutability": "view",
      "type": "function"
    },
    {
      "constant": false,
      "inputs": [
        {
          "name": "_from",
          "type": "address"
        },
        {
          "name": "_to",
          "type": "address"
        },
        {
          "name": "_value",
          "type": "uint256"
        }
      ],
      "name": "transferFrom",
      "outputs": [
        {
          "name": "",
          "type": "bool"
        }
      ],
      "payable": false,
      "stateMutability": "nonpayable",
      "type": "function"
    },
    {
      "constant": true,
      "inputs": [],
      "name": "decimals",
      "outputs": [
        {
          "name": "",
          "type": "uint8"
        }
      ],
      "payable": false,
      "stateMutability": "view",
      "type": "function"
    },
    {
      "constant": false,
      "inputs": [
        {
          "name": "_account",
          "type": "address"
        },
        {
          "name": "_ipfsHash",
          "type": "string"
        },
        {
          "name": "_timeStamp",
          "type": "uint256"
        }
      ],
      "name": "removeAdmin",
      "outputs": [],
      "payable": false,
      "stateMutability": "nonpayable",
      "type": "function"
    },
    {
      "constant": false,
      "inputs": [
        {
          "name": "_to",
          "type": "address"
        },
        {
          "name": "_amount",
          "type": "uint256"
        }
      ],
      "name": "mint",
      "outputs": [
        {
          "name": "",
          "type": "bool"
        }
      ],
      "payable": false,
      "stateMutability": "nonpayable",
      "type": "function"
    },
    {
      "constant": true,
      "inputs": [],
      "name": "contractEnabled",
      "outputs": [
        {
          "name": "",
          "type": "bool"
        }
      ],
      "payable": false,
      "stateMutability": "view",
      "type": "function"
    },
    {
      "constant": false,
      "inputs": [
        {
          "name": "_spender",
          "type": "address"
        },
        {
          "name": "_subtractedValue",
          "type": "uint256"
        }
      ],
      "name": "decreaseApproval",
      "outputs": [
        {
          "name": "",
          "type": "bool"
        }
      ],
      "payable": false,
      "stateMutability": "nonpayable",
      "type": "function"
    },
    {
      "constant": true,
      "inputs": [],
      "name": "getSupply",
      "outputs": [
        {
          "name": "",
          "type": "uint256"
        }
      ],
      "payable": false,
      "stateMutability": "view",
      "type": "function"
    },
    {
      "constant": true,
      "inputs": [],
      "name": "fundsContract",
      "outputs": [
        {
          "name": "",
          "type": "address"
        }
      ],
      "payable": false,
      "stateMutability": "view",
      "type": "function"
    },
    {
      "constant": true,
      "inputs": [
        {
          "name": "_owner",
          "type": "address"
        }
      ],
      "name": "balanceOf",
      "outputs": [
        {
          "name": "",
          "type": "uint256"
        }
      ],
      "payable": false,
      "stateMutability": "view",
      "type": "function"
    },
    {
      "constant": false,
      "inputs": [],
      "name": "renounceOwnership",
      "outputs": [],
      "payable": false,
      "stateMutability": "nonpayable",
      "type": "function"
    },
    {
      "constant": false,
      "inputs": [],
      "name": "finishMinting",
      "outputs": [
        {
          "name": "",
          "type": "bool"
        }
      ],
      "payable": false,
      "stateMutability": "nonpayable",
      "type": "function"
    },
    {
      "constant": false,
      "inputs": [
        {
          "name": "_accounts",
          "type": "address[]"
        },
        {
          "name": "_amounts",
          "type": "uint256[]"
        },
        {
          "name": "_ipfsHash",
          "type": "string"
        },
        {
          "name": "_timeStamp",
          "type": "uint256"
        }
      ],
      "name": "awardBulk",
      "outputs": [
        {
          "name": "",
          "type": "uint256"
        }
      ],
      "payable": false,
      "stateMutability": "nonpayable",
      "type": "function"
    },
    {
      "constant": true,
      "inputs": [],
      "name": "owner",
      "outputs": [
        {
          "name": "",
          "type": "address"
        }
      ],
      "payable": false,
      "stateMutability": "view",
      "type": "function"
    },
    {
      "constant": true,
      "inputs": [],
      "name": "symbol",
      "outputs": [
        {
          "name": "",
          "type": "string"
        }
      ],
      "payable": false,
      "stateMutability": "view",
      "type": "function"
    },
    {
      "constant": false,
      "inputs": [
        {
          "name": "_to",
          "type": "address"
        },
        {
          "name": "_value",
          "type": "uint256"
        }
      ],
      "name": "transfer",
      "outputs": [
        {
          "name": "",
          "type": "bool"
        }
      ],
      "payable": false,
      "stateMutability": "nonpayable",
      "type": "function"
    },
    {
      "constant": false,
      "inputs": [
        {
          "name": "_account",
          "type": "address"
        },
        {
          "name": "_amount",
          "type": "uint256"
        },
        {
          "name": "_ipfsHash",
          "type": "string"
        },
        {
          "name": "_timeStamp",
          "type": "uint256"
        }
      ],
      "name": "award",
      "outputs": [],
      "payable": false,
      "stateMutability": "nonpayable",
      "type": "function"
    },
    {
      "constant": false,
      "inputs": [
        {
          "name": "_ipfsHash",
          "type": "string"
        },
        {
          "name": "_timeStamp",
          "type": "uint256"
        }
      ],
      "name": "emergencyStop",
      "outputs": [
        {
          "name": "",
          "type": "bool"
        }
      ],
      "payable": false,
      "stateMutability": "nonpayable",
      "type": "function"
    },
    {
      "constant": true,
      "inputs": [],
      "name": "minimumEthBalance",
      "outputs": [
        {
          "name": "",
          "type": "uint256"
        }
      ],
      "payable": false,
      "stateMutability": "view",
      "type": "function"
    },
    {
      "constant": false,
      "inputs": [
        {
          "name": "_account",
          "type": "address"
        },
        {
          "name": "_amount",
          "type": "uint256"
        },
        {
          "name": "_ipfsHash",
          "type": "string"
        },
        {
          "name": "_timeStamp",
          "type": "uint256"
        }
      ],
      "name": "burn",
      "outputs": [],
      "payable": false,
      "stateMutability": "nonpayable",
      "type": "function"
    },
    {
      "constant": false,
      "inputs": [
        {
          "name": "_spender",
          "type": "address"
        },
        {
          "name": "_addedValue",
          "type": "uint256"
        }
      ],
      "name": "increaseApproval",
      "outputs": [
        {
          "name": "",
          "type": "bool"
        }
      ],
      "payable": false,
      "stateMutability": "nonpayable",
      "type": "function"
    },
    {
      "constant": true,
      "inputs": [
        {
          "name": "_account",
          "type": "address"
        }
      ],
      "name": "checkIfAdmin",
      "outputs": [
        {
          "name": "",
          "type": "bool"
        }
      ],
      "payable": false,
      "stateMutability": "view",
      "type": "function"
    },
    {
      "constant": true,
      "inputs": [
        {
          "name": "",
          "type": "address"
        }
      ],
      "name": "adminAccounts",
      "outputs": [
        {
          "name": "",
          "type": "bool"
        }
      ],
      "payable": false,
      "stateMutability": "view",
      "type": "function"
    },
    {
      "constant": true,
      "inputs": [
        {
          "name": "_owner",
          "type": "address"
        },
        {
          "name": "_spender",
          "type": "address"
        }
      ],
      "name": "allowance",
      "outputs": [
        {
          "name": "",
          "type": "uint256"
        }
      ],
      "payable": false,
      "stateMutability": "view",
      "type": "function"
    },
    {
      "constant": false,
      "inputs": [
        {
          "name": "_amount",
          "type": "uint256"
        }
      ],
      "name": "sell",
      "outputs": [
        {
          "name": "",
          "type": "bool"
        }
      ],
      "payable": false,
      "stateMutability": "nonpayable",
      "type": "function"
    },
    {
      "constant": false,
      "inputs": [
        {
          "name": "_newOwner",
          "type": "address"
        }
      ],
      "name": "transferOwnership",
      "outputs": [],
      "payable": false,
      "stateMutability": "nonpayable",
      "type": "function"
    },
    {
      "constant": false,
      "inputs": [
        {
          "name": "_ipfsHash",
          "type": "string"
        },
        {
          "name": "_timeStamp",
          "type": "uint256"
        }
      ],
      "name": "resumeContract",
      "outputs": [
        {
          "name": "",
          "type": "bool"
        }
      ],
      "payable": false,
      "stateMutability": "nonpayable",
      "type": "function"
    },
    {
      "payable": true,
      "stateMutability": "payable",
      "type": "fallback"
    },
    {
      "anonymous": false,
      "inputs": [
        {
          "indexed": false,
          "name": "adminAddress",
          "type": "address"
        },
        {
          "indexed": false,
          "name": "ipfsHash",
          "type": "string"
        },
        {
          "indexed": false,
          "name": "timeStamp",
          "type": "uint256"
        }
      ],
      "name": "LogContractDisabled",
      "type": "event"
    },
    {
      "anonymous": false,
      "inputs": [
        {
          "indexed": false,
          "name": "adminAddress",
          "type": "address"
        },
        {
          "indexed": false,
          "name": "ipfsHash",
          "type": "string"
        },
        {
          "indexed": false,
          "name": "timeStamp",
          "type": "uint256"
        }
      ],
      "name": "LogContractEnabled",
      "type": "event"
    },
    {
      "anonymous": false,
      "inputs": [
        {
          "indexed": true,
          "name": "account",
          "type": "address"
        },
        {
          "indexed": false,
          "name": "adminAddress",
          "type": "address"
        },
        {
          "indexed": false,
          "name": "ipfsHash",
          "type": "string"
        },
        {
          "indexed": false,
          "name": "timeStamp",
          "type": "uint256"
        }
      ],
      "name": "LogAdminAdded",
      "type": "event"
    },
    {
      "anonymous": false,
      "inputs": [
        {
          "indexed": true,
          "name": "account",
          "type": "address"
        },
        {
          "indexed": false,
          "name": "adminAddress",
          "type": "address"
        },
        {
          "indexed": false,
          "name": "ipfsHash",
          "type": "string"
        },
        {
          "indexed": false,
          "name": "timeStamp",
          "type": "uint256"
        }
      ],
      "name": "LogAdminRemoved",
      "type": "event"
    },
    {
      "anonymous": false,
      "inputs": [
        {
          "indexed": true,
          "name": "awardedTo",
          "type": "address"
        },
        {
          "indexed": true,
          "name": "minter",
          "type": "address"
        },
        {
          "indexed": false,
          "name": "amount",
          "type": "uint256"
        },
        {
          "indexed": false,
          "name": "ipfsHash",
          "type": "string"
        },
        {
          "indexed": false,
          "name": "timeStamp",
          "type": "uint256"
        }
      ],
      "name": "LogAwarded",
      "type": "event"
    },
    {
      "anonymous": false,
      "inputs": [
        {
          "indexed": false,
          "name": "failed",
          "type": "address"
        },
        {
          "indexed": false,
          "name": "amount",
          "type": "uint256"
        }
      ],
      "name": "LogBulkAwardedFailure",
      "type": "event"
    },
    {
      "anonymous": false,
      "inputs": [
        {
          "indexed": false,
          "name": "bulkCount",
          "type": "uint256"
        },
        {
          "indexed": true,
          "name": "minter",
          "type": "address"
        },
        {
          "indexed": false,
          "name": "ipfsHash",
          "type": "string"
        },
        {
          "indexed": false,
          "name": "timeStamp",
          "type": "uint256"
        }
      ],
      "name": "LogBulkAwardedSummary",
      "type": "event"
    },
    {
      "anonymous": false,
      "inputs": [
        {
          "indexed": false,
          "name": "sellingAccount",
          "type": "address"
        },
        {
          "indexed": false,
          "name": "sellAmount",
          "type": "uint256"
        },
        {
          "indexed": false,
          "name": "ethReceived",
          "type": "uint256"
        }
      ],
      "name": "LogSell",
      "type": "event"
    },
    {
      "anonymous": false,
      "inputs": [
        {
          "indexed": false,
          "name": "oldContract",
          "type": "address"
        },
        {
          "indexed": false,
          "name": "newContract",
          "type": "address"
        },
        {
          "indexed": false,
          "name": "timeStamp",
          "type": "uint256"
        }
      ],
      "name": "LogFundsContractChanged",
      "type": "event"
    },
    {
      "anonymous": false,
      "inputs": [
        {
          "indexed": true,
          "name": "burnFrom",
          "type": "address"
        },
        {
          "indexed": false,
          "name": "adminAddress",
          "type": "address"
        },
        {
          "indexed": false,
          "name": "amount",
          "type": "uint256"
        },
        {
          "indexed": false,
          "name": "ipfsHash",
          "type": "string"
        },
        {
          "indexed": false,
          "name": "timeStamp",
          "type": "uint256"
        }
      ],
      "name": "LogBurned",
      "type": "event"
    },
    {
      "anonymous": false,
      "inputs": [
        {
          "indexed": false,
          "name": "ipfsHash",
          "type": "string"
        }
      ],
      "name": "LogAuditHash",
      "type": "event"
    },
    {
      "anonymous": false,
      "inputs": [
        {
          "indexed": true,
          "name": "to",
          "type": "address"
        },
        {
          "indexed": false,
          "name": "amount",
          "type": "uint256"
        }
      ],
      "name": "Mint",
      "type": "event"
    },
    {
      "anonymous": false,
      "inputs": [],
      "name": "MintFinished",
      "type": "event"
    },
    {
      "anonymous": false,
      "inputs": [
        {
          "indexed": true,
          "name": "previousOwner",
          "type": "address"
        }
      ],
      "name": "OwnershipRenounced",
      "type": "event"
    },
    {
      "anonymous": false,
      "inputs": [
        {
          "indexed": true,
          "name": "previousOwner",
          "type": "address"
        },
        {
          "indexed": true,
          "name": "newOwner",
          "type": "address"
        }
      ],
      "name": "OwnershipTransferred",
      "type": "event"
    },
    {
      "anonymous": false,
      "inputs": [
        {
          "indexed": true,
          "name": "owner",
          "type": "address"
        },
        {
          "indexed": true,
          "name": "spender",
          "type": "address"
        },
        {
          "indexed": false,
          "name": "value",
          "type": "uint256"
        }
      ],
      "name": "Approval",
      "type": "event"
    },
    {
      "anonymous": false,
      "inputs": [
        {
          "indexed": true,
          "name": "from",
          "type": "address"
        },
        {
          "indexed": true,
          "name": "to",
          "type": "address"
        },
        {
          "indexed": false,
          "name": "value",
          "type": "uint256"
        }
      ],
      "name": "Transfer",
      "type": "event"
    }
  ],
  "bytecode": "0x60806040526000600360146101000a81548160ff0219169083151502179055506040805190810160405280600a81526020017f4b68616e61546f6b656e00000000000000000000000000000000000000000000815250600490805190602001906200006c92919062000255565b506040805190810160405280600481526020017f4b484e410000000000000000000000000000000000000000000000000000000081525060059080519060200190620000ba92919062000255565b506012600660006101000a81548160ff021916908360ff160217905550670de0b6b3a76400006007556001600860006101000a81548160ff0219169083151502179055506040805190810160405280601081526020017f23425549444c20414d5320546f6b656e00000000000000000000000000000000815250600a90805190602001906200014b92919062000255565b506040805190810160405280600681526020017f42444c414d530000000000000000000000000000000000000000000000000000815250600b90805190602001906200019992919062000255565b506012600c60006101000a81548160ff021916908360ff16021790555033600360006101000a81548173ffffffffffffffffffffffffffffffffffffffff021916908373ffffffffffffffffffffffffffffffffffffffff1602179055506001600960003373ffffffffffffffffffffffffffffffffffffffff1673ffffffffffffffffffffffffffffffffffffffff16815260200190815260200160002060006101000a81548160ff02191690831515021790555062000304565b828054600181600116156101000203166002900490600052602060002090601f016020900481019282601f106200029857805160ff1916838001178555620002c9565b82800160010185558215620002c9579182015b82811115620002c8578251825591602001919060010190620002ab565b5b509050620002d89190620002dc565b5090565b6200030191905b80821115620002fd576000816000905550600101620002e3565b5090565b90565b61472a80620003146000396000f3006080604052600436106101a1576000357c0100000000000000000000000000000000000000000000000000000000900463ffffffff168063058acc9f1461035757806305d2035b146103a457806306fdde03146103d357806308b73f2c14610463578063095ea7b3146104f657806318160ddd1461055b578063217fe0201461058657806323b872dd146105d1578063313ce56714610656578063368d192f1461068757806340c10f191461071a57806341b3a0d91461077f57806366188463146107ae5780636c9c2faf146108135780636ec6484e1461083e57806370a0823114610895578063715018a6146108ec5780637d64bcb41461090357806385544b56146109325780638da5cb5b14610a3f57806395d89b4114610a96578063a9059cbb14610b26578063b3ca083914610b8b578063c921842814610c28578063d31bcc0114610cb3578063d379324114610cde578063d73dd62314610d7b578063d9fa9c1a14610de0578063da2d3d6914610e3b578063dd62ed3e14610e96578063e4849b3214610f0d578063f2fde38b14610f52578063f5f74a2714610f95575b600860009054906101000a900460ff161515610225576040517f08c379a000000000000000000000000000000000000000000000000000000000815260040180806020018281038252601b8152602001807f456d657267656e63792073746f7020697320616374697661746564000000000081525060200191505060405180910390fd5b600073ffffffffffffffffffffffffffffffffffffffff16600860019054906101000a900473ffffffffffffffffffffffffffffffffffffffff1673ffffffffffffffffffffffffffffffffffffffff16141515156102ec576040517f08c379a00000000000000000000000000000000000000000000000000000000081526004018080602001828103825260168152602001807f496e76616c69642066756e647320636f6e74726163740000000000000000000081525060200191505060405180910390fd5b600860019054906101000a900473ffffffffffffffffffffffffffffffffffffffff1673ffffffffffffffffffffffffffffffffffffffff166108fc349081150290604051600060405180830381858888f19350505050158015610354573d6000803e3d6000fd5b50005b34801561036357600080fd5b506103a2600480360381019080803573ffffffffffffffffffffffffffffffffffffffff16906020019092919080359060200190929190505050611020565b005b3480156103b057600080fd5b506103b9611188565b604051808215151515815260200191505060405180910390f35b3480156103df57600080fd5b506103e861119b565b6040518080602001828103825283818151815260200191508051906020019080838360005b8381101561042857808201518184015260208101905061040d565b50505050905090810190601f1680156104555780820380516001836020036101000a031916815260200191505b509250505060405180910390f35b34801561046f57600080fd5b506104f4600480360381019080803573ffffffffffffffffffffffffffffffffffffffff169060200190929190803590602001908201803590602001908080601f016020809104026020016040519081016040528093929190818152602001838380828437820191505050505050919291929080359060200190929190505050611239565b005b34801561050257600080fd5b50610541600480360381019080803573ffffffffffffffffffffffffffffffffffffffff1690602001909291908035906020019092919050505061150f565b604051808215151515815260200191505060405180910390f35b34801561056757600080fd5b50610570611601565b6040518082815260200191505060405180910390f35b34801561059257600080fd5b506105bb600480360381019080803590602001909291908035906020019092919050505061160b565b6040518082815260200191505060405180910390f35b3480156105dd57600080fd5b5061063c600480360381019080803573ffffffffffffffffffffffffffffffffffffffff169060200190929190803573ffffffffffffffffffffffffffffffffffffffff169060200190929190803590602001909291905050506118c0565b604051808215151515815260200191505060405180910390f35b34801561066257600080fd5b5061066b611c7b565b604051808260ff1660ff16815260200191505060405180910390f35b34801561069357600080fd5b50610718600480360381019080803573ffffffffffffffffffffffffffffffffffffffff169060200190929190803590602001908201803590602001908080601f016020809104026020016040519081016040528093929190818152602001838380828437820191505050505050919291929080359060200190929190505050611c8e565b005b34801561072657600080fd5b50610765600480360381019080803573ffffffffffffffffffffffffffffffffffffffff16906020019092919080359060200190929190505050612050565b604051808215151515815260200191505060405180910390f35b34801561078b57600080fd5b506107946122c8565b604051808215151515815260200191505060405180910390f35b3480156107ba57600080fd5b506107f9600480360381019080803573ffffffffffffffffffffffffffffffffffffffff169060200190929190803590602001909291905050506122db565b604051808215151515815260200191505060405180910390f35b34801561081f57600080fd5b5061082861256d565b6040518082815260200191505060405180910390f35b34801561084a57600080fd5b5061085361257c565b604051808273ffffffffffffffffffffffffffffffffffffffff1673ffffffffffffffffffffffffffffffffffffffff16815260200191505060405180910390f35b3480156108a157600080fd5b506108d6600480360381019080803573ffffffffffffffffffffffffffffffffffffffff1690602001909291905050506125a2565b6040518082815260200191505060405180910390f35b3480156108f857600080fd5b506109016125ea565b005b34801561090f57600080fd5b506109186126ef565b604051808215151515815260200191505060405180910390f35b34801561093e57600080fd5b50610a296004803603810190808035906020019082018035906020019080806020026020016040519081016040528093929190818152602001838360200280828437820191505050505050919291929080359060200190820180359060200190808060200260200160405190810160405280939291908181526020018383602002808284378201915050505050509192919290803590602001908201803590602001908080601f0160208091040260200160405190810160405280939291908181526020018383808284378201915050505050509192919290803590602001909291905050506127b7565b6040518082815260200191505060405180910390f35b348015610a4b57600080fd5b50610a54612ca5565b604051808273ffffffffffffffffffffffffffffffffffffffff1673ffffffffffffffffffffffffffffffffffffffff16815260200191505060405180910390f35b348015610aa257600080fd5b50610aab612ccb565b6040518080602001828103825283818151815260200191508051906020019080838360005b83811015610aeb578082015181840152602081019050610ad0565b50505050905090810190601f168015610b185780820380516001836020036101000a031916815260200191505b509250505060405180910390f35b348015610b3257600080fd5b50610b71600480360381019080803573ffffffffffffffffffffffffffffffffffffffff16906020019092919080359060200190929190505050612d69565b604051808215151515815260200191505060405180910390f35b348015610b9757600080fd5b50610c26600480360381019080803573ffffffffffffffffffffffffffffffffffffffff16906020019092919080359060200190929190803590602001908201803590602001908080601f016020809104026020016040519081016040528093929190818152602001838380828437820191505050505050919291929080359060200190929190505050612f89565b005b348015610c3457600080fd5b50610c99600480360381019080803590602001908201803590602001908080601f016020809104026020016040519081016040528093929190818152602001838380828437820191505050505050919291929080359060200190929190505050613282565b604051808215151515815260200191505060405180910390f35b348015610cbf57600080fd5b50610cc86136aa565b6040518082815260200191505060405180910390f35b348015610cea57600080fd5b50610d79600480360381019080803573ffffffffffffffffffffffffffffffffffffffff16906020019092919080359060200190929190803590602001908201803590602001908080601f0160208091040260200160405190810160405280939291908181526020018383808284378201915050505050509192919290803590602001909291905050506136b0565b005b348015610d8757600080fd5b50610dc6600480360381019080803573ffffffffffffffffffffffffffffffffffffffff169060200190929190803590602001909291905050506138af565b604051808215151515815260200191505060405180910390f35b348015610dec57600080fd5b50610e21600480360381019080803573ffffffffffffffffffffffffffffffffffffffff169060200190929190505050613aab565b604051808215151515815260200191505060405180910390f35b348015610e4757600080fd5b50610e7c600480360381019080803573ffffffffffffffffffffffffffffffffffffffff169060200190929190505050613b01565b604051808215151515815260200191505060405180910390f35b348015610ea257600080fd5b50610ef7600480360381019080803573ffffffffffffffffffffffffffffffffffffffff169060200190929190803573ffffffffffffffffffffffffffffffffffffffff169060200190929190505050613b21565b6040518082815260200191505060405180910390f35b348015610f1957600080fd5b50610f3860048036038101908080359060200190929190505050613ba8565b604051808215151515815260200191505060405180910390f35b348015610f5e57600080fd5b50610f93600480360381019080803573ffffffffffffffffffffffffffffffffffffffff169060200190929190505050613ef8565b005b348015610fa157600080fd5b50611006600480360381019080803590602001908201803590602001908080601f016020809104026020016040519081016040528093929190818152602001838380828437820191505050505050919291929080359060200190929190505050613f60565b604051808215151515815260200191505060405180910390f35b6000600360009054906101000a900473ffffffffffffffffffffffffffffffffffffffff1673ffffffffffffffffffffffffffffffffffffffff163373ffffffffffffffffffffffffffffffffffffffff1614151561107e57600080fd5b600860019054906101000a900473ffffffffffffffffffffffffffffffffffffffff16905082600860016101000a81548173ffffffffffffffffffffffffffffffffffffffff021916908373ffffffffffffffffffffffffffffffffffffffff1602179055507f6d779f841cc1a13e27e520219d343ff27cdb87416632e5233fb1581c09c3b18b818484604051808473ffffffffffffffffffffffffffffffffffffffff1673ffffffffffffffffffffffffffffffffffffffff1681526020018373ffffffffffffffffffffffffffffffffffffffff1673ffffffffffffffffffffffffffffffffffffffff168152602001828152602001935050505060405180910390a1505050565b600360149054906101000a900460ff1681565b600a8054600181600116156101000203166002900480601f0160208091040260200160405190810160405280929190818152602001828054600181600116156101000203166002900480156112315780601f1061120657610100808354040283529160200191611231565b820191906000526020600020905b81548152906001019060200180831161121457829003601f168201915b505050505081565b60011515600960003373ffffffffffffffffffffffffffffffffffffffff1673ffffffffffffffffffffffffffffffffffffffff16815260200190815260200160002060009054906101000a900460ff161515141515611327576040517f08c379a00000000000000000000000000000000000000000000000000000000081526004018080602001828103825260238152602001807f4f6e6c792061646d696e732063616e20706572666f726d20746869732061637481526020017f696f6e000000000000000000000000000000000000000000000000000000000081525060400191505060405180910390fd5b6001600960008573ffffffffffffffffffffffffffffffffffffffff1673ffffffffffffffffffffffffffffffffffffffff16815260200190815260200160002060006101000a81548160ff0219169083151502179055508273ffffffffffffffffffffffffffffffffffffffff167f77b470648cc5c1223027d818297f3f594e752e1d7884842426dc7f645c9bc7e8338484604051808473ffffffffffffffffffffffffffffffffffffffff1673ffffffffffffffffffffffffffffffffffffffff16815260200180602001838152602001828103825284818151815260200191508051906020019080838360005b83811015611432578082015181840152602081019050611417565b50505050905090810190601f16801561145f5780820380516001836020036101000a031916815260200191505b5094505050505060405180910390a27f6a6e5a06c3761dd914882f56d346d4028153c708ab5ae5a81896c268148e5841826040518080602001828103825283818151815260200191508051906020019080838360005b838110156114d05780820151818401526020810190506114b5565b50505050905090810190601f1680156114fd5780820380516001836020036101000a031916815260200191505b509250505060405180910390a1505050565b600081600260003373ffffffffffffffffffffffffffffffffffffffff1673ffffffffffffffffffffffffffffffffffffffff16815260200190815260200160002060008573ffffffffffffffffffffffffffffffffffffffff1673ffffffffffffffffffffffffffffffffffffffff168152602001908152602001600020819055508273ffffffffffffffffffffffffffffffffffffffff163373ffffffffffffffffffffffffffffffffffffffff167f8c5be1e5ebec7d5bd14f71427d1e84f3dd0314c0f7b2291e5b200ac8c7c3b925846040518082815260200191505060405180910390a36001905092915050565b6000600154905090565b60008060008060008073ffffffffffffffffffffffffffffffffffffffff16600860019054906101000a900473ffffffffffffffffffffffffffffffffffffffff1673ffffffffffffffffffffffffffffffffffffffff16141515156116d9576040517f08c379a00000000000000000000000000000000000000000000000000000000081526004018080602001828103825260168152602001807f496e76616c69642066756e647320636f6e74726163740000000000000000000081525060200191505060405180910390fd5b600754600860019054906101000a900473ffffffffffffffffffffffffffffffffffffffff1673ffffffffffffffffffffffffffffffffffffffff16311015151561178c576040517f08c379a000000000000000000000000000000000000000000000000000000000815260040180806020018281038252601c8152602001807f4e6f7420656e6f7567682066756e647320696e20636f6e74726163740000000081525060200191505060405180910390fd5b868610151515611804576040517f08c379a00000000000000000000000000000000000000000000000000000000081526004018080602001828103825260138152602001807f496e76616c69642073656c6c20616d6f756e740000000000000000000000000081525060200191505060405180910390fd5b61180c61256d565b9350670de0b6b3a764000092506118666002600860019054906101000a900473ffffffffffffffffffffffffffffffffffffffff1673ffffffffffffffffffffffffffffffffffffffff163161437290919063ffffffff16565b91506118b1836118a38461189588611887898e61438890919063ffffffff16565b61437290919063ffffffff16565b61438890919063ffffffff16565b61437290919063ffffffff16565b90508094505050505092915050565b60008060008573ffffffffffffffffffffffffffffffffffffffff1673ffffffffffffffffffffffffffffffffffffffff16815260200190815260200160002054821115151561190f57600080fd5b600260008573ffffffffffffffffffffffffffffffffffffffff1673ffffffffffffffffffffffffffffffffffffffff16815260200190815260200160002060003373ffffffffffffffffffffffffffffffffffffffff1673ffffffffffffffffffffffffffffffffffffffff16815260200190815260200160002054821115151561199a57600080fd5b600073ffffffffffffffffffffffffffffffffffffffff168373ffffffffffffffffffffffffffffffffffffffff16141515156119d657600080fd5b611a27826000808773ffffffffffffffffffffffffffffffffffffffff1673ffffffffffffffffffffffffffffffffffffffff168152602001908152602001600020546143c090919063ffffffff16565b6000808673ffffffffffffffffffffffffffffffffffffffff1673ffffffffffffffffffffffffffffffffffffffff16815260200190815260200160002081905550611aba826000808673ffffffffffffffffffffffffffffffffffffffff1673ffffffffffffffffffffffffffffffffffffffff168152602001908152602001600020546143d990919063ffffffff16565b6000808573ffffffffffffffffffffffffffffffffffffffff1673ffffffffffffffffffffffffffffffffffffffff16815260200190815260200160002081905550611b8b82600260008773ffffffffffffffffffffffffffffffffffffffff1673ffffffffffffffffffffffffffffffffffffffff16815260200190815260200160002060003373ffffffffffffffffffffffffffffffffffffffff1673ffffffffffffffffffffffffffffffffffffffff168152602001908152602001600020546143c090919063ffffffff16565b600260008673ffffffffffffffffffffffffffffffffffffffff1673ffffffffffffffffffffffffffffffffffffffff16815260200190815260200160002060003373ffffffffffffffffffffffffffffffffffffffff1673ffffffffffffffffffffffffffffffffffffffff168152602001908152602001600020819055508273ffffffffffffffffffffffffffffffffffffffff168473ffffffffffffffffffffffffffffffffffffffff167fddf252ad1be2c89b69c2b068fc378daa952ba7f163c4a11628f55a4df523b3ef846040518082815260200191505060405180910390a3600190509392505050565b600c60009054906101000a900460ff1681565b60011515600960003373ffffffffffffffffffffffffffffffffffffffff1673ffffffffffffffffffffffffffffffffffffffff16815260200190815260200160002060009054906101000a900460ff161515141515611d7c576040517f08c379a00000000000000000000000000000000000000000000000000000000081526004018080602001828103825260238152602001807f4f6e6c792061646d696e732063616e20706572666f726d20746869732061637481526020017f696f6e000000000000000000000000000000000000000000000000000000000081525060400191505060405180910390fd5b600360009054906101000a900473ffffffffffffffffffffffffffffffffffffffff1673ffffffffffffffffffffffffffffffffffffffff168373ffffffffffffffffffffffffffffffffffffffff1614151515611e68576040517f08c379a00000000000000000000000000000000000000000000000000000000081526004018080602001828103825260288152602001807f4f776e6572206163636f756e742063616e6e6f742062652072656d6f7665642081526020017f61732061646d696e00000000000000000000000000000000000000000000000081525060400191505060405180910390fd5b6000600960008573ffffffffffffffffffffffffffffffffffffffff1673ffffffffffffffffffffffffffffffffffffffff16815260200190815260200160002060006101000a81548160ff0219169083151502179055508273ffffffffffffffffffffffffffffffffffffffff167f4f769f60990c48efd49bb62e908db23a0ad88b98ea7635999c971076c0a60979338484604051808473ffffffffffffffffffffffffffffffffffffffff1673ffffffffffffffffffffffffffffffffffffffff16815260200180602001838152602001828103825284818151815260200191508051906020019080838360005b83811015611f73578082015181840152602081019050611f58565b50505050905090810190601f168015611fa05780820380516001836020036101000a031916815260200191505b5094505050505060405180910390a27f6a6e5a06c3761dd914882f56d346d4028153c708ab5ae5a81896c268148e5841826040518080602001828103825283818151815260200191508051906020019080838360005b83811015612011578082015181840152602081019050611ff6565b50505050905090810190601f16801561203e5780820380516001836020036101000a031916815260200191505b509250505060405180910390a1505050565b600060011515600960003373ffffffffffffffffffffffffffffffffffffffff1673ffffffffffffffffffffffffffffffffffffffff16815260200190815260200160002060009054906101000a900460ff161515141515612140576040517f08c379a00000000000000000000000000000000000000000000000000000000081526004018080602001828103825260238152602001807f4f6e6c792061646d696e732063616e20706572666f726d20746869732061637481526020017f696f6e000000000000000000000000000000000000000000000000000000000081525060400191505060405180910390fd5b600360149054906101000a900460ff1615151561215c57600080fd5b612171826001546143d990919063ffffffff16565b6001819055506121c8826000808673ffffffffffffffffffffffffffffffffffffffff1673ffffffffffffffffffffffffffffffffffffffff168152602001908152602001600020546143d990919063ffffffff16565b6000808573ffffffffffffffffffffffffffffffffffffffff1673ffffffffffffffffffffffffffffffffffffffff168152602001908152602001600020819055508273ffffffffffffffffffffffffffffffffffffffff167f0f6798a560793a54c3bcfe86a93cde1e73087d944c0ea20544137d4121396885836040518082815260200191505060405180910390a28273ffffffffffffffffffffffffffffffffffffffff16600073ffffffffffffffffffffffffffffffffffffffff167fddf252ad1be2c89b69c2b068fc378daa952ba7f163c4a11628f55a4df523b3ef846040518082815260200191505060405180910390a36001905092915050565b600860009054906101000a900460ff1681565b600080600260003373ffffffffffffffffffffffffffffffffffffffff1673ffffffffffffffffffffffffffffffffffffffff16815260200190815260200160002060008573ffffffffffffffffffffffffffffffffffffffff1673ffffffffffffffffffffffffffffffffffffffff16815260200190815260200160002054905080831015156123ed576000600260003373ffffffffffffffffffffffffffffffffffffffff1673ffffffffffffffffffffffffffffffffffffffff16815260200190815260200160002060008673ffffffffffffffffffffffffffffffffffffffff1673ffffffffffffffffffffffffffffffffffffffff16815260200190815260200160002081905550612481565b61240083826143c090919063ffffffff16565b600260003373ffffffffffffffffffffffffffffffffffffffff1673ffffffffffffffffffffffffffffffffffffffff16815260200190815260200160002060008673ffffffffffffffffffffffffffffffffffffffff1673ffffffffffffffffffffffffffffffffffffffff168152602001908152602001600020819055505b8373ffffffffffffffffffffffffffffffffffffffff163373ffffffffffffffffffffffffffffffffffffffff167f8c5be1e5ebec7d5bd14f71427d1e84f3dd0314c0f7b2291e5b200ac8c7c3b925600260003373ffffffffffffffffffffffffffffffffffffffff1673ffffffffffffffffffffffffffffffffffffffff16815260200190815260200160002060008873ffffffffffffffffffffffffffffffffffffffff1673ffffffffffffffffffffffffffffffffffffffff168152602001908152602001600020546040518082815260200191505060405180910390a3600191505092915050565b6000612577611601565b905090565b600860019054906101000a900473ffffffffffffffffffffffffffffffffffffffff1681565b60008060008373ffffffffffffffffffffffffffffffffffffffff1673ffffffffffffffffffffffffffffffffffffffff168152602001908152602001600020549050919050565b600360009054906101000a900473ffffffffffffffffffffffffffffffffffffffff1673ffffffffffffffffffffffffffffffffffffffff163373ffffffffffffffffffffffffffffffffffffffff1614151561264657600080fd5b600360009054906101000a900473ffffffffffffffffffffffffffffffffffffffff1673ffffffffffffffffffffffffffffffffffffffff167ff8df31144d9c2f0f6b59d69b8b98abd5459d07f2742c4df920b25aae33c6482060405160405180910390a26000600360006101000a81548173ffffffffffffffffffffffffffffffffffffffff021916908373ffffffffffffffffffffffffffffffffffffffff160217905550565b6000600360009054906101000a900473ffffffffffffffffffffffffffffffffffffffff1673ffffffffffffffffffffffffffffffffffffffff163373ffffffffffffffffffffffffffffffffffffffff1614151561274d57600080fd5b600360149054906101000a900460ff1615151561276957600080fd5b6001600360146101000a81548160ff0219169083151502179055507fae5184fba832cb2b1f702aca6117b8d265eaf03ad33eb133f19dde0f5920fa0860405160405180910390a16001905090565b60008060008060008060011515600960003373ffffffffffffffffffffffffffffffffffffffff1673ffffffffffffffffffffffffffffffffffffffff16815260200190815260200160002060009054906101000a900460ff1615151415156128ae576040517f08c379a00000000000000000000000000000000000000000000000000000000081526004018080602001828103825260238152602001807f4f6e6c792061646d696e732063616e20706572666f726d20746869732061637481526020017f696f6e000000000000000000000000000000000000000000000000000000000081525060400191505060405180910390fd5b600860009054906101000a900460ff161515612932576040517f08c379a000000000000000000000000000000000000000000000000000000000815260040180806020018281038252601b8152602001807f456d657267656e63792073746f7020697320616374697661746564000000000081525060200191505060405180910390fd5b606463ffffffff168a511015156129b1576040517f08c379a00000000000000000000000000000000000000000000000000000000081526004018080602001828103825260118152602001807f546f6f206d616e79206163636f756e747300000000000000000000000000000081525060200191505060405180910390fd5b606463ffffffff168951101515612a30576040517f08c379a00000000000000000000000000000000000000000000000000000000081526004018080602001828103825260108152602001807f546f6f206d616e7920616d6f756e74730000000000000000000000000000000081525060200191505060405180910390fd5b600189511480612a41575089518951145b1515612ab5576040517f08c379a00000000000000000000000000000000000000000000000000000000081526004018080602001828103825260158152602001807f496e76616c696420616d6f756e747320676976656e000000000000000000000081525060200191505060405180910390fd5b6001895114945060009350600092505b8951831015612bd25784612af0578883815181101515612ae157fe5b90602001906020020151612b0a565b886000815181101515612aff57fe5b906020019060200201515b9150612b2f8a84815181101515612b1d57fe5b90602001906020020151838a8a6143f5565b90508015612b44578380600101945050612bc7565b7fa63d59ce2b9a3aafb1ec53eba7794a858b79a703441174b3edba4460c71abea78a84815181101515612b7357fe5b9060200190602002015183604051808373ffffffffffffffffffffffffffffffffffffffff1673ffffffffffffffffffffffffffffffffffffffff1681526020018281526020019250505060405180910390a15b826001019250612ac5565b3373ffffffffffffffffffffffffffffffffffffffff167f2131cf7fe58678e92655b5a492456875b1292001c6348f9073550e5739f381d5858a8a6040518084815260200180602001838152602001828103825284818151815260200191508051906020019080838360005b83811015612c59578082015181840152602081019050612c3e565b50505050905090810190601f168015612c865780820380516001836020036101000a031916815260200191505b5094505050505060405180910390a28395505050505050949350505050565b600360009054906101000a900473ffffffffffffffffffffffffffffffffffffffff1681565b600b8054600181600116156101000203166002900480601f016020809104026020016040519081016040528092919081815260200182805460018160011615610100020316600290048015612d615780601f10612d3657610100808354040283529160200191612d61565b820191906000526020600020905b815481529060010190602001808311612d4457829003601f168201915b505050505081565b60008060003373ffffffffffffffffffffffffffffffffffffffff1673ffffffffffffffffffffffffffffffffffffffff168152602001908152602001600020548211151515612db857600080fd5b600073ffffffffffffffffffffffffffffffffffffffff168373ffffffffffffffffffffffffffffffffffffffff1614151515612df457600080fd5b612e45826000803373ffffffffffffffffffffffffffffffffffffffff1673ffffffffffffffffffffffffffffffffffffffff168152602001908152602001600020546143c090919063ffffffff16565b6000803373ffffffffffffffffffffffffffffffffffffffff1673ffffffffffffffffffffffffffffffffffffffff16815260200190815260200160002081905550612ed8826000808673ffffffffffffffffffffffffffffffffffffffff1673ffffffffffffffffffffffffffffffffffffffff168152602001908152602001600020546143d990919063ffffffff16565b6000808573ffffffffffffffffffffffffffffffffffffffff1673ffffffffffffffffffffffffffffffffffffffff168152602001908152602001600020819055508273ffffffffffffffffffffffffffffffffffffffff163373ffffffffffffffffffffffffffffffffffffffff167fddf252ad1be2c89b69c2b068fc378daa952ba7f163c4a11628f55a4df523b3ef846040518082815260200191505060405180910390a36001905092915050565b60011515600960003373ffffffffffffffffffffffffffffffffffffffff1673ffffffffffffffffffffffffffffffffffffffff16815260200190815260200160002060009054906101000a900460ff161515141515613077576040517f08c379a00000000000000000000000000000000000000000000000000000000081526004018080602001828103825260238152602001807f4f6e6c792061646d696e732063616e20706572666f726d20746869732061637481526020017f696f6e000000000000000000000000000000000000000000000000000000000081525060400191505060405180910390fd5b600860009054906101000a900460ff1615156130fb576040517f08c379a000000000000000000000000000000000000000000000000000000000815260040180806020018281038252601b8152602001807f456d657267656e63792073746f7020697320616374697661746564000000000081525060200191505060405180910390fd5b6131058484612050565b503373ffffffffffffffffffffffffffffffffffffffff168473ffffffffffffffffffffffffffffffffffffffff167fd38b0976cce90b0af9c4ef84776c386450fd9bb5294e33335d76d9a9d157b8f18585856040518084815260200180602001838152602001828103825284818151815260200191508051906020019080838360005b838110156131a4578082015181840152602081019050613189565b50505050905090810190601f1680156131d15780820380516001836020036101000a031916815260200191505b5094505050505060405180910390a37f6a6e5a06c3761dd914882f56d346d4028153c708ab5ae5a81896c268148e5841826040518080602001828103825283818151815260200191508051906020019080838360005b83811015613242578082015181840152602081019050613227565b50505050905090810190601f16801561326f5780820380516001836020036101000a031916815260200191505b509250505060405180910390a150505050565b600060011515600960003373ffffffffffffffffffffffffffffffffffffffff1673ffffffffffffffffffffffffffffffffffffffff16815260200190815260200160002060009054906101000a900460ff161515141515613372576040517f08c379a00000000000000000000000000000000000000000000000000000000081526004018080602001828103825260238152602001807f4f6e6c792061646d696e732063616e20706572666f726d20746869732061637481526020017f696f6e000000000000000000000000000000000000000000000000000000000081525060400191505060405180910390fd5b600860009054906101000a900460ff1615156133f6576040517f08c379a000000000000000000000000000000000000000000000000000000000815260040180806020018281038252601b8152602001807f456d657267656e63792073746f7020697320616374697661746564000000000081525060200191505060405180910390fd5b6000600860006101000a81548160ff021916908315150217905550600073ffffffffffffffffffffffffffffffffffffffff16600860019054906101000a900473ffffffffffffffffffffffffffffffffffffffff1673ffffffffffffffffffffffffffffffffffffffff1614151561352c57600860019054906101000a900473ffffffffffffffffffffffffffffffffffffffff1673ffffffffffffffffffffffffffffffffffffffff166363a599a46040518163ffffffff167c0100000000000000000000000000000000000000000000000000000000028152600401602060405180830381600087803b1580156134ef57600080fd5b505af1158015613503573d6000803e3d6000fd5b505050506040513d602081101561351957600080fd5b8101908080519060200190929190505050505b7f3162d271c579c653fe21178db896abce1f8ff3c6dee68f51173cefb3f0edbac5338484604051808473ffffffffffffffffffffffffffffffffffffffff1673ffffffffffffffffffffffffffffffffffffffff16815260200180602001838152602001828103825284818151815260200191508051906020019080838360005b838110156135c85780820151818401526020810190506135ad565b50505050905090810190601f1680156135f55780820380516001836020036101000a031916815260200191505b5094505050505060405180910390a17f6a6e5a06c3761dd914882f56d346d4028153c708ab5ae5a81896c268148e5841836040518080602001828103825283818151815260200191508051906020019080838360005b8381101561366657808201518184015260208101905061364b565b50505050905090810190601f1680156136935780820380516001836020036101000a031916815260200191505b509250505060405180910390a16001905092915050565b60075481565b600360009054906101000a900473ffffffffffffffffffffffffffffffffffffffff1673ffffffffffffffffffffffffffffffffffffffff163373ffffffffffffffffffffffffffffffffffffffff1614151561370c57600080fd5b613716848461449d565b8373ffffffffffffffffffffffffffffffffffffffff167f53864b5fe1180652ad3dead953f53a15abbd7b86ac34ce22a0f85c7fd347568833858585604051808573ffffffffffffffffffffffffffffffffffffffff1673ffffffffffffffffffffffffffffffffffffffff16815260200184815260200180602001838152602001828103825284818151815260200191508051906020019080838360005b838110156137d05780820151818401526020810190506137b5565b50505050905090810190601f1680156137fd5780820380516001836020036101000a031916815260200191505b509550505050505060405180910390a27f6a6e5a06c3761dd914882f56d346d4028153c708ab5ae5a81896c268148e5841826040518080602001828103825283818151815260200191508051906020019080838360005b8381101561386f578082015181840152602081019050613854565b50505050905090810190601f16801561389c5780820380516001836020036101000a031916815260200191505b509250505060405180910390a150505050565b600061394082600260003373ffffffffffffffffffffffffffffffffffffffff1673ffffffffffffffffffffffffffffffffffffffff16815260200190815260200160002060008673ffffffffffffffffffffffffffffffffffffffff1673ffffffffffffffffffffffffffffffffffffffff168152602001908152602001600020546143d990919063ffffffff16565b600260003373ffffffffffffffffffffffffffffffffffffffff1673ffffffffffffffffffffffffffffffffffffffff16815260200190815260200160002060008573ffffffffffffffffffffffffffffffffffffffff1673ffffffffffffffffffffffffffffffffffffffff168152602001908152602001600020819055508273ffffffffffffffffffffffffffffffffffffffff163373ffffffffffffffffffffffffffffffffffffffff167f8c5be1e5ebec7d5bd14f71427d1e84f3dd0314c0f7b2291e5b200ac8c7c3b925600260003373ffffffffffffffffffffffffffffffffffffffff1673ffffffffffffffffffffffffffffffffffffffff16815260200190815260200160002060008773ffffffffffffffffffffffffffffffffffffffff1673ffffffffffffffffffffffffffffffffffffffff168152602001908152602001600020546040518082815260200191505060405180910390a36001905092915050565b6000600960008373ffffffffffffffffffffffffffffffffffffffff1673ffffffffffffffffffffffffffffffffffffffff16815260200190815260200160002060009054906101000a900460ff169050919050565b60096020528060005260406000206000915054906101000a900460ff1681565b6000600260008473ffffffffffffffffffffffffffffffffffffffff1673ffffffffffffffffffffffffffffffffffffffff16815260200190815260200160002060008373ffffffffffffffffffffffffffffffffffffffff1673ffffffffffffffffffffffffffffffffffffffff16815260200190815260200160002054905092915050565b6000806000600860009054906101000a900460ff161515613c31576040517f08c379a000000000000000000000000000000000000000000000000000000000815260040180806020018281038252601b8152602001807f456d657267656e63792073746f7020697320616374697661746564000000000081525060200191505060405180910390fd5b600073ffffffffffffffffffffffffffffffffffffffff16600860019054906101000a900473ffffffffffffffffffffffffffffffffffffffff1673ffffffffffffffffffffffffffffffffffffffff1614151515613cf8576040517f08c379a00000000000000000000000000000000000000000000000000000000081526004018080602001828103825260168152602001807f496e76616c69642066756e647320636f6e74726163740000000000000000000081525060200191505060405180910390fd5b613d01336125a2565b9150600084118015613d135750838210155b1515613d87576040517f08c379a00000000000000000000000000000000000000000000000000000000081526004018080602001828103825260138152602001807f496e76616c69642073656c6c20616d6f756e740000000000000000000000000081525060200191505060405180910390fd5b613d91848361160b565b9050613d9d338561449d565b600860019054906101000a900473ffffffffffffffffffffffffffffffffffffffff1673ffffffffffffffffffffffffffffffffffffffff16633436860282336040518363ffffffff167c0100000000000000000000000000000000000000000000000000000000028152600401808381526020018273ffffffffffffffffffffffffffffffffffffffff1673ffffffffffffffffffffffffffffffffffffffff16815260200192505050600060405180830381600087803b158015613e6257600080fd5b505af1158015613e76573d6000803e3d6000fd5b505050507f739b78ed09e4722db227eef0fca68d364a5a407b45f30889d7da8e9a3f856638338583604051808473ffffffffffffffffffffffffffffffffffffffff1673ffffffffffffffffffffffffffffffffffffffff168152602001838152602001828152602001935050505060405180910390a1600192505050919050565b600360009054906101000a900473ffffffffffffffffffffffffffffffffffffffff1673ffffffffffffffffffffffffffffffffffffffff163373ffffffffffffffffffffffffffffffffffffffff16141515613f5457600080fd5b613f5d81614602565b50565b600060011515600960003373ffffffffffffffffffffffffffffffffffffffff1673ffffffffffffffffffffffffffffffffffffffff16815260200190815260200160002060009054906101000a900460ff161515141515614050576040517f08c379a00000000000000000000000000000000000000000000000000000000081526004018080602001828103825260238152602001807f4f6e6c792061646d696e732063616e20706572666f726d20746869732061637481526020017f696f6e000000000000000000000000000000000000000000000000000000000081525060400191505060405180910390fd5b600073ffffffffffffffffffffffffffffffffffffffff16600860019054906101000a900473ffffffffffffffffffffffffffffffffffffffff1673ffffffffffffffffffffffffffffffffffffffff1614151515614117576040517f08c379a00000000000000000000000000000000000000000000000000000000081526004018080602001828103825260168152602001807f496e76616c69642066756e647320636f6e74726163740000000000000000000081525060200191505060405180910390fd5b6001600860006101000a81548160ff021916908315150217905550600860019054906101000a900473ffffffffffffffffffffffffffffffffffffffff1673ffffffffffffffffffffffffffffffffffffffff1663c4bc5da56040518163ffffffff167c0100000000000000000000000000000000000000000000000000000000028152600401602060405180830381600087803b1580156141b857600080fd5b505af11580156141cc573d6000803e3d6000fd5b505050506040513d60208110156141e257600080fd5b8101908080519060200190929190505050507f901f8df96d573d8dcf8e7e9f880bb07aee871d5dc3dede69fa57d0a9999c3cef338484604051808473ffffffffffffffffffffffffffffffffffffffff1673ffffffffffffffffffffffffffffffffffffffff16815260200180602001838152602001828103825284818151815260200191508051906020019080838360005b83811015614290578082015181840152602081019050614275565b50505050905090810190601f1680156142bd5780820380516001836020036101000a031916815260200191505b5094505050505060405180910390a17f6a6e5a06c3761dd914882f56d346d4028153c708ab5ae5a81896c268148e5841836040518080602001828103825283818151815260200191508051906020019080838360005b8381101561432e578082015181840152602081019050614313565b50505050905090810190601f16801561435b5780820380516001836020036101000a031916815260200191505b509250505060405180910390a16001905092915050565b6000818381151561437f57fe5b04905092915050565b60008083141561439b57600090506143ba565b81830290508183828115156143ac57fe5b041415156143b657fe5b8090505b92915050565b60008282111515156143ce57fe5b818303905092915050565b600081830190508281101515156143ec57fe5b80905092915050565b60008073ffffffffffffffffffffffffffffffffffffffff168573ffffffffffffffffffffffffffffffffffffffff1614156144345760009050614495565b3073ffffffffffffffffffffffffffffffffffffffff168573ffffffffffffffffffffffffffffffffffffffff1614156144715760009050614495565b6000841115156144845760009050614495565b61449085858585612f89565b600190505b949350505050565b6000808373ffffffffffffffffffffffffffffffffffffffff1673ffffffffffffffffffffffffffffffffffffffff1681526020019081526020016000205481111515156144ea57600080fd5b61453b816000808573ffffffffffffffffffffffffffffffffffffffff1673ffffffffffffffffffffffffffffffffffffffff168152602001908152602001600020546143c090919063ffffffff16565b6000808473ffffffffffffffffffffffffffffffffffffffff1673ffffffffffffffffffffffffffffffffffffffff16815260200190815260200160002081905550614592816001546143c090919063ffffffff16565b600181905550600073ffffffffffffffffffffffffffffffffffffffff168273ffffffffffffffffffffffffffffffffffffffff167fddf252ad1be2c89b69c2b068fc378daa952ba7f163c4a11628f55a4df523b3ef836040518082815260200191505060405180910390a35050565b600073ffffffffffffffffffffffffffffffffffffffff168173ffffffffffffffffffffffffffffffffffffffff161415151561463e57600080fd5b8073ffffffffffffffffffffffffffffffffffffffff16600360009054906101000a900473ffffffffffffffffffffffffffffffffffffffff1673ffffffffffffffffffffffffffffffffffffffff167f8be0079c531659141344cd1fd0a4f28419497f9722a3daafe3b4186f6b6457e060405160405180910390a380600360006101000a81548173ffffffffffffffffffffffffffffffffffffffff021916908373ffffffffffffffffffffffffffffffffffffffff160217905550505600a165627a7a72305820fb0cc1dfd4883cf97712e930f7e6fbfbe4d57ab042965b036b4d4d3af76c5a2a0029",
  "source": "pragma solidity ^0.4.24;\n\nimport \"../KhanaToken.sol\";\n\n/**\n * @title Proof of Concept contract for the Khana framework, for #BUIDL AMS community\n * @author David Truong <david@truong.vc>\n * @dev This is one of the first prototype deployments of Khana for the #BUIDL AMS community\n * For more information, see: http://buidl.events\n */\n\ncontract BuidlAmsToken is KhanaToken {\n    string public name = \"#BUIDL AMS Token\";\n    string public symbol = \"BDLAMS\";\n    uint8 public decimals = 18;\n}\n",
  "sourcePath": "/Users/david/Documents/Documents - Davids MacBook Pro/GitHub/KhanaFramework/KhanaFramework/Khana POC/contracts/BuidlAms/BuidlAmsToken.sol",
  "compiler": {
    "name": "solc",
    "version": "0.4.24+commit.e67f0147.Emscripten.clang"
  },
  "schemaVersion": "2.0.1",
  "updatedAt": "2018-11-25T20:05:00.647Z"
}