{
  "contractName": "ShiatsuToken",
  "abi": [
    {
      "constant": false,
      "inputs": [
        {
          "name": "_contract",
          "type": "address"
        },
        {
          "name": "_timeStamp",
          "type": "uint256"
        }
      ],
      "name": "setFundsContract",
      "outputs": [],
      "payable": false,
      "stateMutability": "nonpayable",
      "type": "function",
      "signature": "0x058acc9f"
    },
    {
      "constant": true,
      "inputs": [],
      "name": "mintingFinished",
      "outputs": [
        {
          "name": "",
          "type": "bool"
        }
      ],
      "payable": false,
      "stateMutability": "view",
      "type": "function",
      "signature": "0x05d2035b"
    },
    {
      "constant": true,
      "inputs": [],
      "name": "name",
      "outputs": [
        {
          "name": "",
          "type": "string"
        }
      ],
      "payable": false,
      "stateMutability": "view",
      "type": "function",
      "signature": "0x06fdde03"
    },
    {
      "constant": false,
      "inputs": [
        {
          "name": "_account",
          "type": "address"
        },
        {
          "name": "_ipfsHash",
          "type": "string"
        },
        {
          "name": "_timeStamp",
          "type": "uint256"
        }
      ],
      "name": "addAdmin",
      "outputs": [],
      "payable": false,
      "stateMutability": "nonpayable",
      "type": "function",
      "signature": "0x08b73f2c"
    },
    {
      "constant": false,
      "inputs": [
        {
          "name": "_spender",
          "type": "address"
        },
        {
          "name": "_value",
          "type": "uint256"
        }
      ],
      "name": "approve",
      "outputs": [
        {
          "name": "",
          "type": "bool"
        }
      ],
      "payable": false,
      "stateMutability": "nonpayable",
      "type": "function",
      "signature": "0x095ea7b3"
    },
    {
      "constant": true,
      "inputs": [],
      "name": "totalSupply",
      "outputs": [
        {
          "name": "",
          "type": "uint256"
        }
      ],
      "payable": false,
      "stateMutability": "view",
      "type": "function",
      "signature": "0x18160ddd"
    },
    {
      "constant": false,
      "inputs": [
        {
          "name": "_oldContract",
          "type": "address"
        },
        {
          "name": "_oldVersion",
          "type": "uint256"
        },
        {
          "name": "_accounts",
          "type": "address[]"
        },
        {
          "name": "_amounts",
          "type": "uint256[]"
        },
        {
          "name": "_ipfsHash",
          "type": "string"
        },
        {
          "name": "_timeStamp",
          "type": "uint256"
        }
      ],
      "name": "migrateBalancesFromOldContract",
      "outputs": [
        {
          "name": "",
          "type": "bool"
        }
      ],
      "payable": false,
      "stateMutability": "nonpayable",
      "type": "function",
      "signature": "0x193a7917"
    },
    {
      "constant": true,
      "inputs": [
        {
          "name": "_sellAmount",
          "type": "uint256"
        },
        {
          "name": "_tokenBalance",
          "type": "uint256"
        }
      ],
      "name": "calculateSellReturn",
      "outputs": [
        {
          "name": "",
          "type": "uint256"
        }
      ],
      "payable": false,
      "stateMutability": "view",
      "type": "function",
      "signature": "0x217fe020"
    },
    {
      "constant": false,
      "inputs": [
        {
          "name": "_from",
          "type": "address"
        },
        {
          "name": "_to",
          "type": "address"
        },
        {
          "name": "_value",
          "type": "uint256"
        }
      ],
      "name": "transferFrom",
      "outputs": [
        {
          "name": "",
          "type": "bool"
        }
      ],
      "payable": false,
      "stateMutability": "nonpayable",
      "type": "function",
      "signature": "0x23b872dd"
    },
    {
      "constant": true,
      "inputs": [],
      "name": "decimals",
      "outputs": [
        {
          "name": "",
          "type": "uint8"
        }
      ],
      "payable": false,
      "stateMutability": "view",
      "type": "function",
      "signature": "0x313ce567"
    },
    {
      "constant": false,
      "inputs": [
        {
          "name": "_account",
          "type": "address"
        },
        {
          "name": "_ipfsHash",
          "type": "string"
        },
        {
          "name": "_timeStamp",
          "type": "uint256"
        }
      ],
      "name": "removeAdmin",
      "outputs": [],
      "payable": false,
      "stateMutability": "nonpayable",
      "type": "function",
      "signature": "0x368d192f"
    },
    {
      "constant": false,
      "inputs": [
        {
          "name": "_to",
          "type": "address"
        },
        {
          "name": "_amount",
          "type": "uint256"
        }
      ],
      "name": "mint",
      "outputs": [
        {
          "name": "",
          "type": "bool"
        }
      ],
      "payable": false,
      "stateMutability": "nonpayable",
      "type": "function",
      "signature": "0x40c10f19"
    },
    {
      "constant": true,
      "inputs": [],
      "name": "contractEnabled",
      "outputs": [
        {
          "name": "",
          "type": "bool"
        }
      ],
      "payable": false,
      "stateMutability": "view",
      "type": "function",
      "signature": "0x41b3a0d9"
    },
    {
      "constant": false,
      "inputs": [
        {
          "name": "_spender",
          "type": "address"
        },
        {
          "name": "_subtractedValue",
          "type": "uint256"
        }
      ],
      "name": "decreaseApproval",
      "outputs": [
        {
          "name": "",
          "type": "bool"
        }
      ],
      "payable": false,
      "stateMutability": "nonpayable",
      "type": "function",
      "signature": "0x66188463"
    },
    {
      "constant": true,
      "inputs": [],
      "name": "getSupply",
      "outputs": [
        {
          "name": "",
          "type": "uint256"
        }
      ],
      "payable": false,
      "stateMutability": "view",
      "type": "function",
      "signature": "0x6c9c2faf"
    },
    {
      "constant": true,
      "inputs": [],
      "name": "fundsContract",
      "outputs": [
        {
          "name": "",
          "type": "address"
        }
      ],
      "payable": false,
      "stateMutability": "view",
      "type": "function",
      "signature": "0x6ec6484e"
    },
    {
      "constant": true,
      "inputs": [
        {
          "name": "_owner",
          "type": "address"
        }
      ],
      "name": "balanceOf",
      "outputs": [
        {
          "name": "",
          "type": "uint256"
        }
      ],
      "payable": false,
      "stateMutability": "view",
      "type": "function",
      "signature": "0x70a08231"
    },
    {
      "constant": false,
      "inputs": [],
      "name": "renounceOwnership",
      "outputs": [],
      "payable": false,
      "stateMutability": "nonpayable",
      "type": "function",
      "signature": "0x715018a6"
    },
    {
      "constant": false,
      "inputs": [],
      "name": "finishMinting",
      "outputs": [
        {
          "name": "",
          "type": "bool"
        }
      ],
      "payable": false,
      "stateMutability": "nonpayable",
      "type": "function",
      "signature": "0x7d64bcb4"
    },
    {
      "constant": false,
      "inputs": [],
      "name": "destroy",
      "outputs": [],
      "payable": false,
      "stateMutability": "nonpayable",
      "type": "function",
      "signature": "0x83197ef0"
    },
    {
      "constant": false,
      "inputs": [
        {
          "name": "_accounts",
          "type": "address[]"
        },
        {
          "name": "_amounts",
          "type": "uint256[]"
        },
        {
          "name": "_ipfsHash",
          "type": "string"
        },
        {
          "name": "_timeStamp",
          "type": "uint256"
        }
      ],
      "name": "awardBulk",
      "outputs": [
        {
          "name": "",
          "type": "uint256"
        }
      ],
      "payable": false,
      "stateMutability": "nonpayable",
      "type": "function",
      "signature": "0x85544b56"
    },
    {
      "constant": true,
      "inputs": [],
      "name": "owner",
      "outputs": [
        {
          "name": "",
          "type": "address"
        }
      ],
      "payable": false,
      "stateMutability": "view",
      "type": "function",
      "signature": "0x8da5cb5b"
    },
    {
      "constant": true,
      "inputs": [],
      "name": "symbol",
      "outputs": [
        {
          "name": "",
          "type": "string"
        }
      ],
      "payable": false,
      "stateMutability": "view",
      "type": "function",
      "signature": "0x95d89b41"
    },
    {
      "constant": false,
      "inputs": [
        {
          "name": "_to",
          "type": "address"
        },
        {
          "name": "_value",
          "type": "uint256"
        }
      ],
      "name": "transfer",
      "outputs": [
        {
          "name": "",
          "type": "bool"
        }
      ],
      "payable": false,
      "stateMutability": "nonpayable",
      "type": "function",
      "signature": "0xa9059cbb"
    },
    {
      "constant": false,
      "inputs": [
        {
          "name": "_oldContract",
          "type": "address"
        },
        {
          "name": "_oldVersion",
          "type": "uint256"
        },
        {
          "name": "_accounts",
          "type": "address[]"
        },
        {
          "name": "_ipfsHash",
          "type": "string"
        },
        {
          "name": "_timeStamp",
          "type": "uint256"
        }
      ],
      "name": "bulkAddAdmin",
      "outputs": [
        {
          "name": "",
          "type": "uint256"
        }
      ],
      "payable": false,
      "stateMutability": "nonpayable",
      "type": "function",
      "signature": "0xaed3ff5c"
    },
    {
      "constant": false,
      "inputs": [
        {
          "name": "_account",
          "type": "address"
        },
        {
          "name": "_amount",
          "type": "uint256"
        },
        {
          "name": "_ipfsHash",
          "type": "string"
        },
        {
          "name": "_timeStamp",
          "type": "uint256"
        }
      ],
      "name": "award",
      "outputs": [
        {
          "name": "",
          "type": "bool"
        }
      ],
      "payable": false,
      "stateMutability": "nonpayable",
      "type": "function",
      "signature": "0xb3ca0839"
    },
    {
      "constant": false,
      "inputs": [
        {
          "name": "_ipfsHash",
          "type": "string"
        },
        {
          "name": "_timeStamp",
          "type": "uint256"
        }
      ],
      "name": "emergencyStop",
      "outputs": [
        {
          "name": "",
          "type": "bool"
        }
      ],
      "payable": false,
      "stateMutability": "nonpayable",
      "type": "function",
      "signature": "0xc9218428"
    },
    {
      "constant": true,
      "inputs": [],
      "name": "minimumEthBalance",
      "outputs": [
        {
          "name": "",
          "type": "uint256"
        }
      ],
      "payable": false,
      "stateMutability": "view",
      "type": "function",
      "signature": "0xd31bcc01"
    },
    {
      "constant": false,
      "inputs": [
        {
          "name": "_account",
          "type": "address"
        },
        {
          "name": "_amount",
          "type": "uint256"
        },
        {
          "name": "_ipfsHash",
          "type": "string"
        },
        {
          "name": "_timeStamp",
          "type": "uint256"
        }
      ],
      "name": "burn",
      "outputs": [],
      "payable": false,
      "stateMutability": "nonpayable",
      "type": "function",
      "signature": "0xd3793241"
    },
    {
      "constant": false,
      "inputs": [
        {
          "name": "_spender",
          "type": "address"
        },
        {
          "name": "_addedValue",
          "type": "uint256"
        }
      ],
      "name": "increaseApproval",
      "outputs": [
        {
          "name": "",
          "type": "bool"
        }
      ],
      "payable": false,
      "stateMutability": "nonpayable",
      "type": "function",
      "signature": "0xd73dd623"
    },
    {
      "constant": true,
      "inputs": [
        {
          "name": "_account",
          "type": "address"
        }
      ],
      "name": "checkIfAdmin",
      "outputs": [
        {
          "name": "",
          "type": "bool"
        }
      ],
      "payable": false,
      "stateMutability": "view",
      "type": "function",
      "signature": "0xd9fa9c1a"
    },
    {
      "constant": true,
      "inputs": [
        {
          "name": "",
          "type": "address"
        }
      ],
      "name": "adminAccounts",
      "outputs": [
        {
          "name": "",
          "type": "bool"
        }
      ],
      "payable": false,
      "stateMutability": "view",
      "type": "function",
      "signature": "0xda2d3d69"
    },
    {
      "constant": true,
      "inputs": [
        {
          "name": "_owner",
          "type": "address"
        },
        {
          "name": "_spender",
          "type": "address"
        }
      ],
      "name": "allowance",
      "outputs": [
        {
          "name": "",
          "type": "uint256"
        }
      ],
      "payable": false,
      "stateMutability": "view",
      "type": "function",
      "signature": "0xdd62ed3e"
    },
    {
      "constant": false,
      "inputs": [
        {
          "name": "_amount",
          "type": "uint256"
        }
      ],
      "name": "sell",
      "outputs": [
        {
          "name": "",
          "type": "bool"
        }
      ],
      "payable": false,
      "stateMutability": "nonpayable",
      "type": "function",
      "signature": "0xe4849b32"
    },
    {
      "constant": false,
      "inputs": [
        {
          "name": "_newOwner",
          "type": "address"
        }
      ],
      "name": "transferOwnership",
      "outputs": [],
      "payable": false,
      "stateMutability": "nonpayable",
      "type": "function",
      "signature": "0xf2fde38b"
    },
    {
      "constant": false,
      "inputs": [
        {
          "name": "_ipfsHash",
          "type": "string"
        },
        {
          "name": "_timeStamp",
          "type": "uint256"
        }
      ],
      "name": "resumeContract",
      "outputs": [
        {
          "name": "",
          "type": "bool"
        }
      ],
      "payable": false,
      "stateMutability": "nonpayable",
      "type": "function",
      "signature": "0xf5f74a27"
    },
    {
      "payable": true,
      "stateMutability": "payable",
      "type": "fallback"
    },
    {
      "anonymous": false,
      "inputs": [
        {
          "indexed": false,
          "name": "adminAddress",
          "type": "address"
        },
        {
          "indexed": false,
          "name": "ipfsHash",
          "type": "string"
        },
        {
          "indexed": false,
          "name": "timeStamp",
          "type": "uint256"
        }
      ],
      "name": "LogContractDisabled",
      "type": "event",
      "signature": "0x3162d271c579c653fe21178db896abce1f8ff3c6dee68f51173cefb3f0edbac5"
    },
    {
      "anonymous": false,
      "inputs": [
        {
          "indexed": false,
          "name": "adminAddress",
          "type": "address"
        },
        {
          "indexed": false,
          "name": "ipfsHash",
          "type": "string"
        },
        {
          "indexed": false,
          "name": "timeStamp",
          "type": "uint256"
        }
      ],
      "name": "LogContractEnabled",
      "type": "event",
      "signature": "0x901f8df96d573d8dcf8e7e9f880bb07aee871d5dc3dede69fa57d0a9999c3cef"
    },
    {
      "anonymous": false,
      "inputs": [
        {
          "indexed": true,
          "name": "account",
          "type": "address"
        },
        {
          "indexed": false,
          "name": "adminAddress",
          "type": "address"
        },
        {
          "indexed": false,
          "name": "ipfsHash",
          "type": "string"
        },
        {
          "indexed": false,
          "name": "timeStamp",
          "type": "uint256"
        }
      ],
      "name": "LogAdminAdded",
      "type": "event",
      "signature": "0x77b470648cc5c1223027d818297f3f594e752e1d7884842426dc7f645c9bc7e8"
    },
    {
      "anonymous": false,
      "inputs": [
        {
          "indexed": true,
          "name": "account",
          "type": "address"
        },
        {
          "indexed": false,
          "name": "adminAddress",
          "type": "address"
        },
        {
          "indexed": false,
          "name": "ipfsHash",
          "type": "string"
        },
        {
          "indexed": false,
          "name": "timeStamp",
          "type": "uint256"
        }
      ],
      "name": "LogAdminRemoved",
      "type": "event",
      "signature": "0x4f769f60990c48efd49bb62e908db23a0ad88b98ea7635999c971076c0a60979"
    },
    {
      "anonymous": false,
      "inputs": [
        {
          "indexed": true,
          "name": "awardedTo",
          "type": "address"
        },
        {
          "indexed": true,
          "name": "minter",
          "type": "address"
        },
        {
          "indexed": false,
          "name": "amount",
          "type": "uint256"
        },
        {
          "indexed": false,
          "name": "ipfsHash",
          "type": "string"
        },
        {
          "indexed": false,
          "name": "timeStamp",
          "type": "uint256"
        }
      ],
      "name": "LogAwarded",
      "type": "event",
      "signature": "0xd38b0976cce90b0af9c4ef84776c386450fd9bb5294e33335d76d9a9d157b8f1"
    },
    {
      "anonymous": false,
      "inputs": [
        {
          "indexed": false,
          "name": "failed",
          "type": "address"
        },
        {
          "indexed": false,
          "name": "amount",
          "type": "uint256"
        }
      ],
      "name": "LogBulkAwardedFailure",
      "type": "event",
      "signature": "0xa63d59ce2b9a3aafb1ec53eba7794a858b79a703441174b3edba4460c71abea7"
    },
    {
      "anonymous": false,
      "inputs": [
        {
          "indexed": false,
          "name": "bulkCount",
          "type": "uint256"
        },
        {
          "indexed": true,
          "name": "minter",
          "type": "address"
        },
        {
          "indexed": false,
          "name": "ipfsHash",
          "type": "string"
        },
        {
          "indexed": false,
          "name": "timeStamp",
          "type": "uint256"
        }
      ],
      "name": "LogBulkAwardedSummary",
      "type": "event",
      "signature": "0x2131cf7fe58678e92655b5a492456875b1292001c6348f9073550e5739f381d5"
    },
    {
      "anonymous": false,
      "inputs": [
        {
          "indexed": false,
          "name": "sellingAccount",
          "type": "address"
        },
        {
          "indexed": false,
          "name": "sellAmount",
          "type": "uint256"
        },
        {
          "indexed": false,
          "name": "ethReceived",
          "type": "uint256"
        }
      ],
      "name": "LogSell",
      "type": "event",
      "signature": "0x739b78ed09e4722db227eef0fca68d364a5a407b45f30889d7da8e9a3f856638"
    },
    {
      "anonymous": false,
      "inputs": [
        {
          "indexed": false,
          "name": "oldContract",
          "type": "address"
        },
        {
          "indexed": false,
          "name": "newContract",
          "type": "address"
        },
        {
          "indexed": false,
          "name": "timeStamp",
          "type": "uint256"
        }
      ],
      "name": "LogFundsContractChanged",
      "type": "event",
      "signature": "0x6d779f841cc1a13e27e520219d343ff27cdb87416632e5233fb1581c09c3b18b"
    },
    {
      "anonymous": false,
      "inputs": [
        {
          "indexed": true,
          "name": "burnFrom",
          "type": "address"
        },
        {
          "indexed": false,
          "name": "adminAddress",
          "type": "address"
        },
        {
          "indexed": false,
          "name": "amount",
          "type": "uint256"
        },
        {
          "indexed": false,
          "name": "ipfsHash",
          "type": "string"
        },
        {
          "indexed": false,
          "name": "timeStamp",
          "type": "uint256"
        }
      ],
      "name": "LogBurned",
      "type": "event",
      "signature": "0x53864b5fe1180652ad3dead953f53a15abbd7b86ac34ce22a0f85c7fd3475688"
    },
    {
      "anonymous": false,
      "inputs": [
        {
          "indexed": true,
          "name": "caller",
          "type": "address"
        },
        {
          "indexed": true,
          "name": "oldContract",
          "type": "address"
        },
        {
          "indexed": false,
          "name": "oldVersion",
          "type": "uint256"
        },
        {
          "indexed": false,
          "name": "accounts",
          "type": "address[]"
        },
        {
          "indexed": false,
          "name": "amounts",
          "type": "uint256[]"
        },
        {
          "indexed": false,
          "name": "ipfsHash",
          "type": "string"
        },
        {
          "indexed": false,
          "name": "timeStamp",
          "type": "uint256"
        }
      ],
      "name": "LogTokenMigration",
      "type": "event",
      "signature": "0xf463726c4cee4a51833c46b58dc2698041da5f8251357a725440138a7fcc9f1a"
    },
    {
      "anonymous": false,
      "inputs": [
        {
          "indexed": true,
          "name": "caller",
          "type": "address"
        },
        {
          "indexed": true,
          "name": "oldContract",
          "type": "address"
        },
        {
          "indexed": false,
          "name": "oldVersion",
          "type": "uint256"
        },
        {
          "indexed": false,
          "name": "accounts",
          "type": "address[]"
        },
        {
          "indexed": false,
          "name": "ipfsHash",
          "type": "string"
        },
        {
          "indexed": false,
          "name": "timeStamp",
          "type": "uint256"
        }
      ],
      "name": "LogBulkAdminAdded",
      "type": "event",
      "signature": "0x1bb5bb50b08c2cea9575b07cd6a1652a7024aab7fada786d9f6243eb19e88036"
    },
    {
      "anonymous": false,
      "inputs": [
        {
          "indexed": false,
          "name": "ipfsHash",
          "type": "string"
        }
      ],
      "name": "LogAuditHash",
      "type": "event",
      "signature": "0x6a6e5a06c3761dd914882f56d346d4028153c708ab5ae5a81896c268148e5841"
    },
    {
      "anonymous": false,
      "inputs": [
        {
          "indexed": true,
          "name": "to",
          "type": "address"
        },
        {
          "indexed": false,
          "name": "amount",
          "type": "uint256"
        }
      ],
      "name": "Mint",
      "type": "event",
      "signature": "0x0f6798a560793a54c3bcfe86a93cde1e73087d944c0ea20544137d4121396885"
    },
    {
      "anonymous": false,
      "inputs": [],
      "name": "MintFinished",
      "type": "event",
      "signature": "0xae5184fba832cb2b1f702aca6117b8d265eaf03ad33eb133f19dde0f5920fa08"
    },
    {
      "anonymous": false,
      "inputs": [
        {
          "indexed": true,
          "name": "previousOwner",
          "type": "address"
        }
      ],
      "name": "OwnershipRenounced",
      "type": "event",
      "signature": "0xf8df31144d9c2f0f6b59d69b8b98abd5459d07f2742c4df920b25aae33c64820"
    },
    {
      "anonymous": false,
      "inputs": [
        {
          "indexed": true,
          "name": "previousOwner",
          "type": "address"
        },
        {
          "indexed": true,
          "name": "newOwner",
          "type": "address"
        }
      ],
      "name": "OwnershipTransferred",
      "type": "event",
      "signature": "0x8be0079c531659141344cd1fd0a4f28419497f9722a3daafe3b4186f6b6457e0"
    },
    {
      "anonymous": false,
      "inputs": [
        {
          "indexed": true,
          "name": "owner",
          "type": "address"
        },
        {
          "indexed": true,
          "name": "spender",
          "type": "address"
        },
        {
          "indexed": false,
          "name": "value",
          "type": "uint256"
        }
      ],
      "name": "Approval",
      "type": "event",
      "signature": "0x8c5be1e5ebec7d5bd14f71427d1e84f3dd0314c0f7b2291e5b200ac8c7c3b925"
    },
    {
      "anonymous": false,
      "inputs": [
        {
          "indexed": true,
          "name": "from",
          "type": "address"
        },
        {
          "indexed": true,
          "name": "to",
          "type": "address"
        },
        {
          "indexed": false,
          "name": "value",
          "type": "uint256"
        }
      ],
      "name": "Transfer",
      "type": "event",
      "signature": "0xddf252ad1be2c89b69c2b068fc378daa952ba7f163c4a11628f55a4df523b3ef"
    }
  ],
  "bytecode": "0x60806040526000600360146101000a81548160ff0219169083151502179055506040805190810160405280600a81526020017f4b68616e61546f6b656e00000000000000000000000000000000000000000000815250600490805190602001906200006c92919062000255565b506040805190810160405280600481526020017f4b484e410000000000000000000000000000000000000000000000000000000081525060059080519060200190620000ba92919062000255565b506012600660006101000a81548160ff021916908360ff160217905550670de0b6b3a76400006007556001600860006101000a81548160ff0219169083151502179055506040805190810160405280601681526020017f56616c7565204f66205368696174737520546f6b656e00000000000000000000815250600a90805190602001906200014b92919062000255565b506040805190810160405280600381526020017f564f530000000000000000000000000000000000000000000000000000000000815250600b90805190602001906200019992919062000255565b506012600c60006101000a81548160ff021916908360ff16021790555033600360006101000a81548173ffffffffffffffffffffffffffffffffffffffff021916908373ffffffffffffffffffffffffffffffffffffffff1602179055506001600960003373ffffffffffffffffffffffffffffffffffffffff1673ffffffffffffffffffffffffffffffffffffffff16815260200190815260200160002060006101000a81548160ff02191690831515021790555062000304565b828054600181600116156101000203166002900490600052602060002090601f016020900481019282601f106200029857805160ff1916838001178555620002c9565b82800160010185558215620002c9579182015b82811115620002c8578251825591602001919060010190620002ab565b5b509050620002d89190620002dc565b5090565b6200030191905b80821115620002fd576000816000905550600101620002e3565b5090565b90565b61565080620003146000396000f3006080604052600436106101c2576000357c0100000000000000000000000000000000000000000000000000000000900463ffffffff168063058acc9f1461037857806305d2035b146103c557806306fdde03146103f457806308b73f2c14610484578063095ea7b31461051757806318160ddd1461057c578063193a7917146105a7578063217fe020146106e257806323b872dd1461072d578063313ce567146107b2578063368d192f146107e357806340c10f191461087657806341b3a0d9146108db578063661884631461090a5780636c9c2faf1461096f5780636ec6484e1461099a57806370a08231146109f1578063715018a614610a485780637d64bcb414610a5f57806383197ef014610a8e57806385544b5614610aa55780638da5cb5b14610bb257806395d89b4114610c09578063a9059cbb14610c99578063aed3ff5c14610cfe578063b3ca083914610df2578063c921842814610ea7578063d31bcc0114610f32578063d379324114610f5d578063d73dd62314610ffa578063d9fa9c1a1461105f578063da2d3d69146110ba578063dd62ed3e14611115578063e4849b321461118c578063f2fde38b146111d1578063f5f74a2714611214575b600860009054906101000a900460ff161515610246576040517f08c379a000000000000000000000000000000000000000000000000000000000815260040180806020018281038252601b8152602001807f456d657267656e63792073746f7020697320616374697661746564000000000081525060200191505060405180910390fd5b600073ffffffffffffffffffffffffffffffffffffffff16600860019054906101000a900473ffffffffffffffffffffffffffffffffffffffff1673ffffffffffffffffffffffffffffffffffffffff161415151561030d576040517f08c379a00000000000000000000000000000000000000000000000000000000081526004018080602001828103825260168152602001807f496e76616c69642066756e647320636f6e74726163740000000000000000000081525060200191505060405180910390fd5b600860019054906101000a900473ffffffffffffffffffffffffffffffffffffffff1673ffffffffffffffffffffffffffffffffffffffff166108fc349081150290604051600060405180830381858888f19350505050158015610375573d6000803e3d6000fd5b50005b34801561038457600080fd5b506103c3600480360381019080803573ffffffffffffffffffffffffffffffffffffffff1690602001909291908035906020019092919050505061129f565b005b3480156103d157600080fd5b506103da611407565b604051808215151515815260200191505060405180910390f35b34801561040057600080fd5b5061040961141a565b6040518080602001828103825283818151815260200191508051906020019080838360005b8381101561044957808201518184015260208101905061042e565b50505050905090810190601f1680156104765780820380516001836020036101000a031916815260200191505b509250505060405180910390f35b34801561049057600080fd5b50610515600480360381019080803573ffffffffffffffffffffffffffffffffffffffff169060200190929190803590602001908201803590602001908080601f0160208091040260200160405190810160405280939291908181526020018383808284378201915050505050509192919290803590602001909291905050506114b8565b005b34801561052357600080fd5b50610562600480360381019080803573ffffffffffffffffffffffffffffffffffffffff1690602001909291908035906020019092919050505061178e565b604051808215151515815260200191505060405180910390f35b34801561058857600080fd5b50610591611880565b6040518082815260200191505060405180910390f35b3480156105b357600080fd5b506106c8600480360381019080803573ffffffffffffffffffffffffffffffffffffffff169060200190929190803590602001909291908035906020019082018035906020019080806020026020016040519081016040528093929190818152602001838360200280828437820191505050505050919291929080359060200190820180359060200190808060200260200160405190810160405280939291908181526020018383602002808284378201915050505050509192919290803590602001908201803590602001908080601f01602080910402602001604051908101604052809392919081815260200183838082843782019150505050505091929192908035906020019092919050505061188a565b604051808215151515815260200191505060405180910390f35b3480156106ee57600080fd5b506107176004803603810190808035906020019092919080359060200190929190505050611c10565b6040518082815260200191505060405180910390f35b34801561073957600080fd5b50610798600480360381019080803573ffffffffffffffffffffffffffffffffffffffff169060200190929190803573ffffffffffffffffffffffffffffffffffffffff16906020019092919080359060200190929190505050611ec5565b604051808215151515815260200191505060405180910390f35b3480156107be57600080fd5b506107c7612280565b604051808260ff1660ff16815260200191505060405180910390f35b3480156107ef57600080fd5b50610874600480360381019080803573ffffffffffffffffffffffffffffffffffffffff169060200190929190803590602001908201803590602001908080601f016020809104026020016040519081016040528093929190818152602001838380828437820191505050505050919291929080359060200190929190505050612293565b005b34801561088257600080fd5b506108c1600480360381019080803573ffffffffffffffffffffffffffffffffffffffff16906020019092919080359060200190929190505050612655565b604051808215151515815260200191505060405180910390f35b3480156108e757600080fd5b506108f06128cd565b604051808215151515815260200191505060405180910390f35b34801561091657600080fd5b50610955600480360381019080803573ffffffffffffffffffffffffffffffffffffffff169060200190929190803590602001909291905050506128e0565b604051808215151515815260200191505060405180910390f35b34801561097b57600080fd5b50610984612b72565b6040518082815260200191505060405180910390f35b3480156109a657600080fd5b506109af612b81565b604051808273ffffffffffffffffffffffffffffffffffffffff1673ffffffffffffffffffffffffffffffffffffffff16815260200191505060405180910390f35b3480156109fd57600080fd5b50610a32600480360381019080803573ffffffffffffffffffffffffffffffffffffffff169060200190929190505050612ba7565b6040518082815260200191505060405180910390f35b348015610a5457600080fd5b50610a5d612bef565b005b348015610a6b57600080fd5b50610a74612cf4565b604051808215151515815260200191505060405180910390f35b348015610a9a57600080fd5b50610aa3612dbc565b005b348015610ab157600080fd5b50610b9c6004803603810190808035906020019082018035906020019080806020026020016040519081016040528093929190818152602001838360200280828437820191505050505050919291929080359060200190820180359060200190808060200260200160405190810160405280939291908181526020018383602002808284378201915050505050509192919290803590602001908201803590602001908080601f016020809104026020016040519081016040528093929190818152602001838380828437820191505050505050919291929080359060200190929190505050612e53565b6040518082815260200191505060405180910390f35b348015610bbe57600080fd5b50610bc7612fdf565b604051808273ffffffffffffffffffffffffffffffffffffffff1673ffffffffffffffffffffffffffffffffffffffff16815260200191505060405180910390f35b348015610c1557600080fd5b50610c1e613005565b6040518080602001828103825283818151815260200191508051906020019080838360005b83811015610c5e578082015181840152602081019050610c43565b50505050905090810190601f168015610c8b5780820380516001836020036101000a031916815260200191505b509250505060405180910390f35b348015610ca557600080fd5b50610ce4600480360381019080803573ffffffffffffffffffffffffffffffffffffffff169060200190929190803590602001909291905050506130a3565b604051808215151515815260200191505060405180910390f35b348015610d0a57600080fd5b50610ddc600480360381019080803573ffffffffffffffffffffffffffffffffffffffff1690602001909291908035906020019092919080359060200190820180359060200190808060200260200160405190810160405280939291908181526020018383602002808284378201915050505050509192919290803590602001908201803590602001908080601f0160208091040260200160405190810160405280939291908181526020018383808284378201915050505050509192919290803590602001909291905050506132c3565b6040518082815260200191505060405180910390f35b348015610dfe57600080fd5b50610e8d600480360381019080803573ffffffffffffffffffffffffffffffffffffffff16906020019092919080359060200190929190803590602001908201803590602001908080601f01602080910402602001604051908101604052809392919081815260200183838082843782019150505050505091929192908035906020019092919050505061369c565b604051808215151515815260200191505060405180910390f35b348015610eb357600080fd5b50610f18600480360381019080803590602001908201803590602001908080601f016020809104026020016040519081016040528093929190818152602001838380828437820191505050505050919291929080359060200190929190505050613828565b604051808215151515815260200191505060405180910390f35b348015610f3e57600080fd5b50610f47613c50565b6040518082815260200191505060405180910390f35b348015610f6957600080fd5b50610ff8600480360381019080803573ffffffffffffffffffffffffffffffffffffffff16906020019092919080359060200190929190803590602001908201803590602001908080601f016020809104026020016040519081016040528093929190818152602001838380828437820191505050505050919291929080359060200190929190505050613c56565b005b34801561100657600080fd5b50611045600480360381019080803573ffffffffffffffffffffffffffffffffffffffff16906020019092919080359060200190929190505050613e55565b604051808215151515815260200191505060405180910390f35b34801561106b57600080fd5b506110a0600480360381019080803573ffffffffffffffffffffffffffffffffffffffff169060200190929190505050614051565b604051808215151515815260200191505060405180910390f35b3480156110c657600080fd5b506110fb600480360381019080803573ffffffffffffffffffffffffffffffffffffffff1690602001909291905050506140a7565b604051808215151515815260200191505060405180910390f35b34801561112157600080fd5b50611176600480360381019080803573ffffffffffffffffffffffffffffffffffffffff169060200190929190803573ffffffffffffffffffffffffffffffffffffffff1690602001909291905050506140c7565b6040518082815260200191505060405180910390f35b34801561119857600080fd5b506111b76004803603810190808035906020019092919050505061414e565b604051808215151515815260200191505060405180910390f35b3480156111dd57600080fd5b50611212600480360381019080803573ffffffffffffffffffffffffffffffffffffffff16906020019092919050505061449e565b005b34801561122057600080fd5b50611285600480360381019080803590602001908201803590602001908080601f016020809104026020016040519081016040528093929190818152602001838380828437820191505050505050919291929080359060200190929190505050614506565b604051808215151515815260200191505060405180910390f35b6000600360009054906101000a900473ffffffffffffffffffffffffffffffffffffffff1673ffffffffffffffffffffffffffffffffffffffff163373ffffffffffffffffffffffffffffffffffffffff161415156112fd57600080fd5b600860019054906101000a900473ffffffffffffffffffffffffffffffffffffffff16905082600860016101000a81548173ffffffffffffffffffffffffffffffffffffffff021916908373ffffffffffffffffffffffffffffffffffffffff1602179055507f6d779f841cc1a13e27e520219d343ff27cdb87416632e5233fb1581c09c3b18b818484604051808473ffffffffffffffffffffffffffffffffffffffff1673ffffffffffffffffffffffffffffffffffffffff1681526020018373ffffffffffffffffffffffffffffffffffffffff1673ffffffffffffffffffffffffffffffffffffffff168152602001828152602001935050505060405180910390a1505050565b600360149054906101000a900460ff1681565b600a8054600181600116156101000203166002900480601f0160208091040260200160405190810160405280929190818152602001828054600181600116156101000203166002900480156114b05780601f10611485576101008083540402835291602001916114b0565b820191906000526020600020905b81548152906001019060200180831161149357829003601f168201915b505050505081565b60011515600960003373ffffffffffffffffffffffffffffffffffffffff1673ffffffffffffffffffffffffffffffffffffffff16815260200190815260200160002060009054906101000a900460ff1615151415156115a6576040517f08c379a00000000000000000000000000000000000000000000000000000000081526004018080602001828103825260238152602001807f4f6e6c792061646d696e732063616e20706572666f726d20746869732061637481526020017f696f6e000000000000000000000000000000000000000000000000000000000081525060400191505060405180910390fd5b6001600960008573ffffffffffffffffffffffffffffffffffffffff1673ffffffffffffffffffffffffffffffffffffffff16815260200190815260200160002060006101000a81548160ff0219169083151502179055508273ffffffffffffffffffffffffffffffffffffffff167f77b470648cc5c1223027d818297f3f594e752e1d7884842426dc7f645c9bc7e8338484604051808473ffffffffffffffffffffffffffffffffffffffff1673ffffffffffffffffffffffffffffffffffffffff16815260200180602001838152602001828103825284818151815260200191508051906020019080838360005b838110156116b1578082015181840152602081019050611696565b50505050905090810190601f1680156116de5780820380516001836020036101000a031916815260200191505b5094505050505060405180910390a27f6a6e5a06c3761dd914882f56d346d4028153c708ab5ae5a81896c268148e5841826040518080602001828103825283818151815260200191508051906020019080838360005b8381101561174f578082015181840152602081019050611734565b50505050905090810190601f16801561177c5780820380516001836020036101000a031916815260200191505b509250505060405180910390a1505050565b600081600260003373ffffffffffffffffffffffffffffffffffffffff1673ffffffffffffffffffffffffffffffffffffffff16815260200190815260200160002060008573ffffffffffffffffffffffffffffffffffffffff1673ffffffffffffffffffffffffffffffffffffffff168152602001908152602001600020819055508273ffffffffffffffffffffffffffffffffffffffff163373ffffffffffffffffffffffffffffffffffffffff167f8c5be1e5ebec7d5bd14f71427d1e84f3dd0314c0f7b2291e5b200ac8c7c3b925846040518082815260200191505060405180910390a36001905092915050565b6000600154905090565b6000600360009054906101000a900473ffffffffffffffffffffffffffffffffffffffff1673ffffffffffffffffffffffffffffffffffffffff163373ffffffffffffffffffffffffffffffffffffffff161415156118e857600080fd5b600860009054906101000a900460ff16151561196c576040517f08c379a000000000000000000000000000000000000000000000000000000000815260040180806020018281038252601b8152602001807f456d657267656e63792073746f7020697320616374697661746564000000000081525060200191505060405180910390fd5b6000611976612b72565b1415156119eb576040517f08c379a00000000000000000000000000000000000000000000000000000000081526004018080602001828103825260148152602001807f546f6b656e7320616c726561647920657869737400000000000000000000000081525060200191505060405180910390fd5b6119f9858585856001614918565b508673ffffffffffffffffffffffffffffffffffffffff163373ffffffffffffffffffffffffffffffffffffffff167ff463726c4cee4a51833c46b58dc2698041da5f8251357a725440138a7fcc9f1a888888888860405180868152602001806020018060200180602001858152602001848103845288818151815260200191508051906020019060200280838360005b83811015611aa5578082015181840152602081019050611a8a565b50505050905001848103835287818151815260200191508051906020019060200280838360005b83811015611ae7578082015181840152602081019050611acc565b50505050905001848103825286818151815260200191508051906020019080838360005b83811015611b26578082015181840152602081019050611b0b565b50505050905090810190601f168015611b535780820380516001836020036101000a031916815260200191505b509850505050505050505060405180910390a37f6a6e5a06c3761dd914882f56d346d4028153c708ab5ae5a81896c268148e5841836040518080602001828103825283818151815260200191508051906020019080838360005b83811015611bc8578082015181840152602081019050611bad565b50505050905090810190601f168015611bf55780820380516001836020036101000a031916815260200191505b509250505060405180910390a1600190509695505050505050565b60008060008060008073ffffffffffffffffffffffffffffffffffffffff16600860019054906101000a900473ffffffffffffffffffffffffffffffffffffffff1673ffffffffffffffffffffffffffffffffffffffff1614151515611cde576040517f08c379a00000000000000000000000000000000000000000000000000000000081526004018080602001828103825260168152602001807f496e76616c69642066756e647320636f6e74726163740000000000000000000081525060200191505060405180910390fd5b600754600860019054906101000a900473ffffffffffffffffffffffffffffffffffffffff1673ffffffffffffffffffffffffffffffffffffffff163110151515611d91576040517f08c379a000000000000000000000000000000000000000000000000000000000815260040180806020018281038252601c8152602001807f4e6f7420656e6f7567682066756e647320696e20636f6e74726163740000000081525060200191505060405180910390fd5b868610151515611e09576040517f08c379a00000000000000000000000000000000000000000000000000000000081526004018080602001828103825260138152602001807f496e76616c69642073656c6c20616d6f756e740000000000000000000000000081525060200191505060405180910390fd5b611e11612b72565b9350670de0b6b3a76400009250611e6b6002600860019054906101000a900473ffffffffffffffffffffffffffffffffffffffff1673ffffffffffffffffffffffffffffffffffffffff1631614e1090919063ffffffff16565b9150611eb683611ea884611e9a88611e8c898e614e2690919063ffffffff16565b614e1090919063ffffffff16565b614e2690919063ffffffff16565b614e1090919063ffffffff16565b90508094505050505092915050565b60008060008573ffffffffffffffffffffffffffffffffffffffff1673ffffffffffffffffffffffffffffffffffffffff168152602001908152602001600020548211151515611f1457600080fd5b600260008573ffffffffffffffffffffffffffffffffffffffff1673ffffffffffffffffffffffffffffffffffffffff16815260200190815260200160002060003373ffffffffffffffffffffffffffffffffffffffff1673ffffffffffffffffffffffffffffffffffffffff168152602001908152602001600020548211151515611f9f57600080fd5b600073ffffffffffffffffffffffffffffffffffffffff168373ffffffffffffffffffffffffffffffffffffffff1614151515611fdb57600080fd5b61202c826000808773ffffffffffffffffffffffffffffffffffffffff1673ffffffffffffffffffffffffffffffffffffffff16815260200190815260200160002054614e5e90919063ffffffff16565b6000808673ffffffffffffffffffffffffffffffffffffffff1673ffffffffffffffffffffffffffffffffffffffff168152602001908152602001600020819055506120bf826000808673ffffffffffffffffffffffffffffffffffffffff1673ffffffffffffffffffffffffffffffffffffffff16815260200190815260200160002054614e7790919063ffffffff16565b6000808573ffffffffffffffffffffffffffffffffffffffff1673ffffffffffffffffffffffffffffffffffffffff1681526020019081526020016000208190555061219082600260008773ffffffffffffffffffffffffffffffffffffffff1673ffffffffffffffffffffffffffffffffffffffff16815260200190815260200160002060003373ffffffffffffffffffffffffffffffffffffffff1673ffffffffffffffffffffffffffffffffffffffff16815260200190815260200160002054614e5e90919063ffffffff16565b600260008673ffffffffffffffffffffffffffffffffffffffff1673ffffffffffffffffffffffffffffffffffffffff16815260200190815260200160002060003373ffffffffffffffffffffffffffffffffffffffff1673ffffffffffffffffffffffffffffffffffffffff168152602001908152602001600020819055508273ffffffffffffffffffffffffffffffffffffffff168473ffffffffffffffffffffffffffffffffffffffff167fddf252ad1be2c89b69c2b068fc378daa952ba7f163c4a11628f55a4df523b3ef846040518082815260200191505060405180910390a3600190509392505050565b600c60009054906101000a900460ff1681565b60011515600960003373ffffffffffffffffffffffffffffffffffffffff1673ffffffffffffffffffffffffffffffffffffffff16815260200190815260200160002060009054906101000a900460ff161515141515612381576040517f08c379a00000000000000000000000000000000000000000000000000000000081526004018080602001828103825260238152602001807f4f6e6c792061646d696e732063616e20706572666f726d20746869732061637481526020017f696f6e000000000000000000000000000000000000000000000000000000000081525060400191505060405180910390fd5b600360009054906101000a900473ffffffffffffffffffffffffffffffffffffffff1673ffffffffffffffffffffffffffffffffffffffff168373ffffffffffffffffffffffffffffffffffffffff161415151561246d576040517f08c379a00000000000000000000000000000000000000000000000000000000081526004018080602001828103825260288152602001807f4f776e6572206163636f756e742063616e6e6f742062652072656d6f7665642081526020017f61732061646d696e00000000000000000000000000000000000000000000000081525060400191505060405180910390fd5b6000600960008573ffffffffffffffffffffffffffffffffffffffff1673ffffffffffffffffffffffffffffffffffffffff16815260200190815260200160002060006101000a81548160ff0219169083151502179055508273ffffffffffffffffffffffffffffffffffffffff167f4f769f60990c48efd49bb62e908db23a0ad88b98ea7635999c971076c0a60979338484604051808473ffffffffffffffffffffffffffffffffffffffff1673ffffffffffffffffffffffffffffffffffffffff16815260200180602001838152602001828103825284818151815260200191508051906020019080838360005b8381101561257857808201518184015260208101905061255d565b50505050905090810190601f1680156125a55780820380516001836020036101000a031916815260200191505b5094505050505060405180910390a27f6a6e5a06c3761dd914882f56d346d4028153c708ab5ae5a81896c268148e5841826040518080602001828103825283818151815260200191508051906020019080838360005b838110156126165780820151818401526020810190506125fb565b50505050905090810190601f1680156126435780820380516001836020036101000a031916815260200191505b509250505060405180910390a1505050565b600060011515600960003373ffffffffffffffffffffffffffffffffffffffff1673ffffffffffffffffffffffffffffffffffffffff16815260200190815260200160002060009054906101000a900460ff161515141515612745576040517f08c379a00000000000000000000000000000000000000000000000000000000081526004018080602001828103825260238152602001807f4f6e6c792061646d696e732063616e20706572666f726d20746869732061637481526020017f696f6e000000000000000000000000000000000000000000000000000000000081525060400191505060405180910390fd5b600360149054906101000a900460ff1615151561276157600080fd5b61277682600154614e7790919063ffffffff16565b6001819055506127cd826000808673ffffffffffffffffffffffffffffffffffffffff1673ffffffffffffffffffffffffffffffffffffffff16815260200190815260200160002054614e7790919063ffffffff16565b6000808573ffffffffffffffffffffffffffffffffffffffff1673ffffffffffffffffffffffffffffffffffffffff168152602001908152602001600020819055508273ffffffffffffffffffffffffffffffffffffffff167f0f6798a560793a54c3bcfe86a93cde1e73087d944c0ea20544137d4121396885836040518082815260200191505060405180910390a28273ffffffffffffffffffffffffffffffffffffffff16600073ffffffffffffffffffffffffffffffffffffffff167fddf252ad1be2c89b69c2b068fc378daa952ba7f163c4a11628f55a4df523b3ef846040518082815260200191505060405180910390a36001905092915050565b600860009054906101000a900460ff1681565b600080600260003373ffffffffffffffffffffffffffffffffffffffff1673ffffffffffffffffffffffffffffffffffffffff16815260200190815260200160002060008573ffffffffffffffffffffffffffffffffffffffff1673ffffffffffffffffffffffffffffffffffffffff16815260200190815260200160002054905080831015156129f2576000600260003373ffffffffffffffffffffffffffffffffffffffff1673ffffffffffffffffffffffffffffffffffffffff16815260200190815260200160002060008673ffffffffffffffffffffffffffffffffffffffff1673ffffffffffffffffffffffffffffffffffffffff16815260200190815260200160002081905550612a86565b612a058382614e5e90919063ffffffff16565b600260003373ffffffffffffffffffffffffffffffffffffffff1673ffffffffffffffffffffffffffffffffffffffff16815260200190815260200160002060008673ffffffffffffffffffffffffffffffffffffffff1673ffffffffffffffffffffffffffffffffffffffff168152602001908152602001600020819055505b8373ffffffffffffffffffffffffffffffffffffffff163373ffffffffffffffffffffffffffffffffffffffff167f8c5be1e5ebec7d5bd14f71427d1e84f3dd0314c0f7b2291e5b200ac8c7c3b925600260003373ffffffffffffffffffffffffffffffffffffffff1673ffffffffffffffffffffffffffffffffffffffff16815260200190815260200160002060008873ffffffffffffffffffffffffffffffffffffffff1673ffffffffffffffffffffffffffffffffffffffff168152602001908152602001600020546040518082815260200191505060405180910390a3600191505092915050565b6000612b7c611880565b905090565b600860019054906101000a900473ffffffffffffffffffffffffffffffffffffffff1681565b60008060008373ffffffffffffffffffffffffffffffffffffffff1673ffffffffffffffffffffffffffffffffffffffff168152602001908152602001600020549050919050565b600360009054906101000a900473ffffffffffffffffffffffffffffffffffffffff1673ffffffffffffffffffffffffffffffffffffffff163373ffffffffffffffffffffffffffffffffffffffff16141515612c4b57600080fd5b600360009054906101000a900473ffffffffffffffffffffffffffffffffffffffff1673ffffffffffffffffffffffffffffffffffffffff167ff8df31144d9c2f0f6b59d69b8b98abd5459d07f2742c4df920b25aae33c6482060405160405180910390a26000600360006101000a81548173ffffffffffffffffffffffffffffffffffffffff021916908373ffffffffffffffffffffffffffffffffffffffff160217905550565b6000600360009054906101000a900473ffffffffffffffffffffffffffffffffffffffff1673ffffffffffffffffffffffffffffffffffffffff163373ffffffffffffffffffffffffffffffffffffffff16141515612d5257600080fd5b600360149054906101000a900460ff16151515612d6e57600080fd5b6001600360146101000a81548160ff0219169083151502179055507fae5184fba832cb2b1f702aca6117b8d265eaf03ad33eb133f19dde0f5920fa0860405160405180910390a16001905090565b600360009054906101000a900473ffffffffffffffffffffffffffffffffffffffff1673ffffffffffffffffffffffffffffffffffffffff163373ffffffffffffffffffffffffffffffffffffffff16141515612e1857600080fd5b600360009054906101000a900473ffffffffffffffffffffffffffffffffffffffff1673ffffffffffffffffffffffffffffffffffffffff16ff5b600060011515600960003373ffffffffffffffffffffffffffffffffffffffff1673ffffffffffffffffffffffffffffffffffffffff16815260200190815260200160002060009054906101000a900460ff161515141515612f43576040517f08c379a00000000000000000000000000000000000000000000000000000000081526004018080602001828103825260238152602001807f4f6e6c792061646d696e732063616e20706572666f726d20746869732061637481526020017f696f6e000000000000000000000000000000000000000000000000000000000081525060400191505060405180910390fd5b600860009054906101000a900460ff161515612fc7576040517f08c379a000000000000000000000000000000000000000000000000000000000815260040180806020018281038252601b8152602001807f456d657267656e63792073746f7020697320616374697661746564000000000081525060200191505060405180910390fd5b612fd5858585856000614918565b9050949350505050565b600360009054906101000a900473ffffffffffffffffffffffffffffffffffffffff1681565b600b8054600181600116156101000203166002900480601f01602080910402602001604051908101604052809291908181526020018280546001816001161561010002031660029004801561309b5780601f106130705761010080835404028352916020019161309b565b820191906000526020600020905b81548152906001019060200180831161307e57829003601f168201915b505050505081565b60008060003373ffffffffffffffffffffffffffffffffffffffff1673ffffffffffffffffffffffffffffffffffffffff1681526020019081526020016000205482111515156130f257600080fd5b600073ffffffffffffffffffffffffffffffffffffffff168373ffffffffffffffffffffffffffffffffffffffff161415151561312e57600080fd5b61317f826000803373ffffffffffffffffffffffffffffffffffffffff1673ffffffffffffffffffffffffffffffffffffffff16815260200190815260200160002054614e5e90919063ffffffff16565b6000803373ffffffffffffffffffffffffffffffffffffffff1673ffffffffffffffffffffffffffffffffffffffff16815260200190815260200160002081905550613212826000808673ffffffffffffffffffffffffffffffffffffffff1673ffffffffffffffffffffffffffffffffffffffff16815260200190815260200160002054614e7790919063ffffffff16565b6000808573ffffffffffffffffffffffffffffffffffffffff1673ffffffffffffffffffffffffffffffffffffffff168152602001908152602001600020819055508273ffffffffffffffffffffffffffffffffffffffff163373ffffffffffffffffffffffffffffffffffffffff167fddf252ad1be2c89b69c2b068fc378daa952ba7f163c4a11628f55a4df523b3ef846040518082815260200191505060405180910390a36001905092915050565b600080600360009054906101000a900473ffffffffffffffffffffffffffffffffffffffff1673ffffffffffffffffffffffffffffffffffffffff163373ffffffffffffffffffffffffffffffffffffffff1614151561332257600080fd5b600860009054906101000a900460ff1615156133a6576040517f08c379a000000000000000000000000000000000000000000000000000000000815260040180806020018281038252601b8152602001807f456d657267656e63792073746f7020697320616374697661746564000000000081525060200191505060405180910390fd5b60006133b0612b72565b14151561344b576040517f08c379a00000000000000000000000000000000000000000000000000000000081526004018080602001828103825260358152602001807f546f6b656e7320616c72656164792065786973742c206f6e6c7920706f73736981526020017f626c652077697468206e657720636f6e7472616374000000000000000000000081525060400191505060405180910390fd5b600090505b84518110156134d357600160096000878481518110151561346d57fe5b9060200190602002015173ffffffffffffffffffffffffffffffffffffffff1673ffffffffffffffffffffffffffffffffffffffff16815260200190815260200160002060006101000a81548160ff021916908315150217905550806001019050613450565b8673ffffffffffffffffffffffffffffffffffffffff163373ffffffffffffffffffffffffffffffffffffffff167f1bb5bb50b08c2cea9575b07cd6a1652a7024aab7fada786d9f6243eb19e8803688888888604051808581526020018060200180602001848152602001838103835286818151815260200191508051906020019060200280838360005b8381101561357957808201518184015260208101905061355e565b50505050905001838103825285818151815260200191508051906020019080838360005b838110156135b857808201518184015260208101905061359d565b50505050905090810190601f1680156135e55780820380516001836020036101000a031916815260200191505b50965050505050505060405180910390a37f6a6e5a06c3761dd914882f56d346d4028153c708ab5ae5a81896c268148e5841846040518080602001828103825283818151815260200191508051906020019080838360005b8381101561365857808201518184015260208101905061363d565b50505050905090810190601f1680156136855780820380516001836020036101000a031916815260200191505b509250505060405180910390a15095945050505050565b600060011515600960003373ffffffffffffffffffffffffffffffffffffffff1673ffffffffffffffffffffffffffffffffffffffff16815260200190815260200160002060009054906101000a900460ff16151514151561378c576040517f08c379a00000000000000000000000000000000000000000000000000000000081526004018080602001828103825260238152602001807f4f6e6c792061646d696e732063616e20706572666f726d20746869732061637481526020017f696f6e000000000000000000000000000000000000000000000000000000000081525060400191505060405180910390fd5b600860009054906101000a900460ff161515613810576040517f08c379a000000000000000000000000000000000000000000000000000000000815260040180806020018281038252601b8152602001807f456d657267656e63792073746f7020697320616374697661746564000000000081525060200191505060405180910390fd5b61381e858585856000614e93565b9050949350505050565b600060011515600960003373ffffffffffffffffffffffffffffffffffffffff1673ffffffffffffffffffffffffffffffffffffffff16815260200190815260200160002060009054906101000a900460ff161515141515613918576040517f08c379a00000000000000000000000000000000000000000000000000000000081526004018080602001828103825260238152602001807f4f6e6c792061646d696e732063616e20706572666f726d20746869732061637481526020017f696f6e000000000000000000000000000000000000000000000000000000000081525060400191505060405180910390fd5b600860009054906101000a900460ff16151561399c576040517f08c379a000000000000000000000000000000000000000000000000000000000815260040180806020018281038252601b8152602001807f456d657267656e63792073746f7020697320616374697661746564000000000081525060200191505060405180910390fd5b6000600860006101000a81548160ff021916908315150217905550600073ffffffffffffffffffffffffffffffffffffffff16600860019054906101000a900473ffffffffffffffffffffffffffffffffffffffff1673ffffffffffffffffffffffffffffffffffffffff16141515613ad257600860019054906101000a900473ffffffffffffffffffffffffffffffffffffffff1673ffffffffffffffffffffffffffffffffffffffff166363a599a46040518163ffffffff167c0100000000000000000000000000000000000000000000000000000000028152600401602060405180830381600087803b158015613a9557600080fd5b505af1158015613aa9573d6000803e3d6000fd5b505050506040513d6020811015613abf57600080fd5b8101908080519060200190929190505050505b7f3162d271c579c653fe21178db896abce1f8ff3c6dee68f51173cefb3f0edbac5338484604051808473ffffffffffffffffffffffffffffffffffffffff1673ffffffffffffffffffffffffffffffffffffffff16815260200180602001838152602001828103825284818151815260200191508051906020019080838360005b83811015613b6e578082015181840152602081019050613b53565b50505050905090810190601f168015613b9b5780820380516001836020036101000a031916815260200191505b5094505050505060405180910390a17f6a6e5a06c3761dd914882f56d346d4028153c708ab5ae5a81896c268148e5841836040518080602001828103825283818151815260200191508051906020019080838360005b83811015613c0c578082015181840152602081019050613bf1565b50505050905090810190601f168015613c395780820380516001836020036101000a031916815260200191505b509250505060405180910390a16001905092915050565b60075481565b600360009054906101000a900473ffffffffffffffffffffffffffffffffffffffff1673ffffffffffffffffffffffffffffffffffffffff163373ffffffffffffffffffffffffffffffffffffffff16141515613cb257600080fd5b613cbc84846151a8565b8373ffffffffffffffffffffffffffffffffffffffff167f53864b5fe1180652ad3dead953f53a15abbd7b86ac34ce22a0f85c7fd347568833858585604051808573ffffffffffffffffffffffffffffffffffffffff1673ffffffffffffffffffffffffffffffffffffffff16815260200184815260200180602001838152602001828103825284818151815260200191508051906020019080838360005b83811015613d76578082015181840152602081019050613d5b565b50505050905090810190601f168015613da35780820380516001836020036101000a031916815260200191505b509550505050505060405180910390a27f6a6e5a06c3761dd914882f56d346d4028153c708ab5ae5a81896c268148e5841826040518080602001828103825283818151815260200191508051906020019080838360005b83811015613e15578082015181840152602081019050613dfa565b50505050905090810190601f168015613e425780820380516001836020036101000a031916815260200191505b509250505060405180910390a150505050565b6000613ee682600260003373ffffffffffffffffffffffffffffffffffffffff1673ffffffffffffffffffffffffffffffffffffffff16815260200190815260200160002060008673ffffffffffffffffffffffffffffffffffffffff1673ffffffffffffffffffffffffffffffffffffffff16815260200190815260200160002054614e7790919063ffffffff16565b600260003373ffffffffffffffffffffffffffffffffffffffff1673ffffffffffffffffffffffffffffffffffffffff16815260200190815260200160002060008573ffffffffffffffffffffffffffffffffffffffff1673ffffffffffffffffffffffffffffffffffffffff168152602001908152602001600020819055508273ffffffffffffffffffffffffffffffffffffffff163373ffffffffffffffffffffffffffffffffffffffff167f8c5be1e5ebec7d5bd14f71427d1e84f3dd0314c0f7b2291e5b200ac8c7c3b925600260003373ffffffffffffffffffffffffffffffffffffffff1673ffffffffffffffffffffffffffffffffffffffff16815260200190815260200160002060008773ffffffffffffffffffffffffffffffffffffffff1673ffffffffffffffffffffffffffffffffffffffff168152602001908152602001600020546040518082815260200191505060405180910390a36001905092915050565b6000600960008373ffffffffffffffffffffffffffffffffffffffff1673ffffffffffffffffffffffffffffffffffffffff16815260200190815260200160002060009054906101000a900460ff169050919050565b60096020528060005260406000206000915054906101000a900460ff1681565b6000600260008473ffffffffffffffffffffffffffffffffffffffff1673ffffffffffffffffffffffffffffffffffffffff16815260200190815260200160002060008373ffffffffffffffffffffffffffffffffffffffff1673ffffffffffffffffffffffffffffffffffffffff16815260200190815260200160002054905092915050565b6000806000600860009054906101000a900460ff1615156141d7576040517f08c379a000000000000000000000000000000000000000000000000000000000815260040180806020018281038252601b8152602001807f456d657267656e63792073746f7020697320616374697661746564000000000081525060200191505060405180910390fd5b600073ffffffffffffffffffffffffffffffffffffffff16600860019054906101000a900473ffffffffffffffffffffffffffffffffffffffff1673ffffffffffffffffffffffffffffffffffffffff161415151561429e576040517f08c379a00000000000000000000000000000000000000000000000000000000081526004018080602001828103825260168152602001807f496e76616c69642066756e647320636f6e74726163740000000000000000000081525060200191505060405180910390fd5b6142a733612ba7565b91506000841180156142b95750838210155b151561432d576040517f08c379a00000000000000000000000000000000000000000000000000000000081526004018080602001828103825260138152602001807f496e76616c69642073656c6c20616d6f756e740000000000000000000000000081525060200191505060405180910390fd5b6143378483611c10565b905061434333856151a8565b600860019054906101000a900473ffffffffffffffffffffffffffffffffffffffff1673ffffffffffffffffffffffffffffffffffffffff16633436860282336040518363ffffffff167c0100000000000000000000000000000000000000000000000000000000028152600401808381526020018273ffffffffffffffffffffffffffffffffffffffff1673ffffffffffffffffffffffffffffffffffffffff16815260200192505050600060405180830381600087803b15801561440857600080fd5b505af115801561441c573d6000803e3d6000fd5b505050507f739b78ed09e4722db227eef0fca68d364a5a407b45f30889d7da8e9a3f856638338583604051808473ffffffffffffffffffffffffffffffffffffffff1673ffffffffffffffffffffffffffffffffffffffff168152602001838152602001828152602001935050505060405180910390a1600192505050919050565b600360009054906101000a900473ffffffffffffffffffffffffffffffffffffffff1673ffffffffffffffffffffffffffffffffffffffff163373ffffffffffffffffffffffffffffffffffffffff161415156144fa57600080fd5b6145038161530d565b50565b600060011515600960003373ffffffffffffffffffffffffffffffffffffffff1673ffffffffffffffffffffffffffffffffffffffff16815260200190815260200160002060009054906101000a900460ff1615151415156145f6576040517f08c379a00000000000000000000000000000000000000000000000000000000081526004018080602001828103825260238152602001807f4f6e6c792061646d696e732063616e20706572666f726d20746869732061637481526020017f696f6e000000000000000000000000000000000000000000000000000000000081525060400191505060405180910390fd5b600073ffffffffffffffffffffffffffffffffffffffff16600860019054906101000a900473ffffffffffffffffffffffffffffffffffffffff1673ffffffffffffffffffffffffffffffffffffffff16141515156146bd576040517f08c379a00000000000000000000000000000000000000000000000000000000081526004018080602001828103825260168152602001807f496e76616c69642066756e647320636f6e74726163740000000000000000000081525060200191505060405180910390fd5b6001600860006101000a81548160ff021916908315150217905550600860019054906101000a900473ffffffffffffffffffffffffffffffffffffffff1673ffffffffffffffffffffffffffffffffffffffff1663c4bc5da56040518163ffffffff167c0100000000000000000000000000000000000000000000000000000000028152600401602060405180830381600087803b15801561475e57600080fd5b505af1158015614772573d6000803e3d6000fd5b505050506040513d602081101561478857600080fd5b8101908080519060200190929190505050507f901f8df96d573d8dcf8e7e9f880bb07aee871d5dc3dede69fa57d0a9999c3cef338484604051808473ffffffffffffffffffffffffffffffffffffffff1673ffffffffffffffffffffffffffffffffffffffff16815260200180602001838152602001828103825284818151815260200191508051906020019080838360005b8381101561483657808201518184015260208101905061481b565b50505050905090810190601f1680156148635780820380516001836020036101000a031916815260200191505b5094505050505060405180910390a17f6a6e5a06c3761dd914882f56d346d4028153c708ab5ae5a81896c268148e5841836040518080602001828103825283818151815260200191508051906020019080838360005b838110156148d45780820151818401526020810190506148b9565b50505050905090810190601f1680156149015780820380516001836020036101000a031916815260200191505b509250505060405180910390a16001905092915050565b60008060008060008060011515600960003373ffffffffffffffffffffffffffffffffffffffff1673ffffffffffffffffffffffffffffffffffffffff16815260200190815260200160002060009054906101000a900460ff161515141515614a0f576040517f08c379a00000000000000000000000000000000000000000000000000000000081526004018080602001828103825260238152602001807f4f6e6c792061646d696e732063616e20706572666f726d20746869732061637481526020017f696f6e000000000000000000000000000000000000000000000000000000000081525060400191505060405180910390fd5b600860009054906101000a900460ff161515614a93576040517f08c379a000000000000000000000000000000000000000000000000000000000815260040180806020018281038252601b8152602001807f456d657267656e63792073746f7020697320616374697661746564000000000081525060200191505060405180910390fd5b606463ffffffff168b51101515614b12576040517f08c379a00000000000000000000000000000000000000000000000000000000081526004018080602001828103825260118152602001807f546f6f206d616e79206163636f756e747300000000000000000000000000000081525060200191505060405180910390fd5b606463ffffffff168a51101515614b91576040517f08c379a00000000000000000000000000000000000000000000000000000000081526004018080602001828103825260108152602001807f546f6f206d616e7920616d6f756e74730000000000000000000000000000000081525060200191505060405180910390fd5b60018a511480614ba257508a518a51145b1515614c16576040517f08c379a00000000000000000000000000000000000000000000000000000000081526004018080602001828103825260158152602001807f496e76616c696420616d6f756e747320676976656e000000000000000000000081525060200191505060405180910390fd5b60018a5114945060009350600092505b8a51831015614d345784614c51578983815181101515614c4257fe5b90602001906020020151614c6b565b896000815181101515614c6057fe5b906020019060200201515b9150614c918b84815181101515614c7e57fe5b90602001906020020151838b8b8b615409565b90508015614ca6578380600101945050614d29565b7fa63d59ce2b9a3aafb1ec53eba7794a858b79a703441174b3edba4460c71abea78b84815181101515614cd557fe5b9060200190602002015183604051808373ffffffffffffffffffffffffffffffffffffffff1673ffffffffffffffffffffffffffffffffffffffff1681526020018281526020019250505060405180910390a15b826001019250614c26565b861515614dff573373ffffffffffffffffffffffffffffffffffffffff167f2131cf7fe58678e92655b5a492456875b1292001c6348f9073550e5739f381d5858b8b6040518084815260200180602001838152602001828103825284818151815260200191508051906020019080838360005b83811015614dc2578082015181840152602081019050614da7565b50505050905090810190601f168015614def5780820380516001836020036101000a031916815260200191505b5094505050505060405180910390a25b839550505050505095945050505050565b60008183811515614e1d57fe5b04905092915050565b600080831415614e395760009050614e58565b8183029050818382811515614e4a57fe5b04141515614e5457fe5b8090505b92915050565b6000828211151515614e6c57fe5b818303905092915050565b60008183019050828110151515614e8a57fe5b80905092915050565b60008060011515600960003373ffffffffffffffffffffffffffffffffffffffff1673ffffffffffffffffffffffffffffffffffffffff16815260200190815260200160002060009054906101000a900460ff161515141515614f84576040517f08c379a00000000000000000000000000000000000000000000000000000000081526004018080602001828103825260238152602001807f4f6e6c792061646d696e732063616e20706572666f726d20746869732061637481526020017f696f6e000000000000000000000000000000000000000000000000000000000081525060400191505060405180910390fd5b600860009054906101000a900460ff161515615008576040517f08c379a000000000000000000000000000000000000000000000000000000000815260040180806020018281038252601b8152602001807f456d657267656e63792073746f7020697320616374697661746564000000000081525060200191505060405180910390fd5b6150128787612655565b90508215801561501f5750805b1561519b573373ffffffffffffffffffffffffffffffffffffffff168773ffffffffffffffffffffffffffffffffffffffff167fd38b0976cce90b0af9c4ef84776c386450fd9bb5294e33335d76d9a9d157b8f18888886040518084815260200180602001838152602001828103825284818151815260200191508051906020019080838360005b838110156150c25780820151818401526020810190506150a7565b50505050905090810190601f1680156150ef5780820380516001836020036101000a031916815260200191505b5094505050505060405180910390a37f6a6e5a06c3761dd914882f56d346d4028153c708ab5ae5a81896c268148e5841856040518080602001828103825283818151815260200191508051906020019080838360005b83811015615160578082015181840152602081019050615145565b50505050905090810190601f16801561518d5780820380516001836020036101000a031916815260200191505b509250505060405180910390a15b8091505095945050505050565b6000808373ffffffffffffffffffffffffffffffffffffffff1673ffffffffffffffffffffffffffffffffffffffff1681526020019081526020016000205481111515156151f557600080fd5b615246816000808573ffffffffffffffffffffffffffffffffffffffff1673ffffffffffffffffffffffffffffffffffffffff16815260200190815260200160002054614e5e90919063ffffffff16565b6000808473ffffffffffffffffffffffffffffffffffffffff1673ffffffffffffffffffffffffffffffffffffffff1681526020019081526020016000208190555061529d81600154614e5e90919063ffffffff16565b600181905550600073ffffffffffffffffffffffffffffffffffffffff168273ffffffffffffffffffffffffffffffffffffffff167fddf252ad1be2c89b69c2b068fc378daa952ba7f163c4a11628f55a4df523b3ef836040518082815260200191505060405180910390a35050565b600073ffffffffffffffffffffffffffffffffffffffff168173ffffffffffffffffffffffffffffffffffffffff161415151561534957600080fd5b8073ffffffffffffffffffffffffffffffffffffffff16600360009054906101000a900473ffffffffffffffffffffffffffffffffffffffff1673ffffffffffffffffffffffffffffffffffffffff167f8be0079c531659141344cd1fd0a4f28419497f9722a3daafe3b4186f6b6457e060405160405180910390a380600360006101000a81548173ffffffffffffffffffffffffffffffffffffffff021916908373ffffffffffffffffffffffffffffffffffffffff16021790555050565b600060011515600960003373ffffffffffffffffffffffffffffffffffffffff1673ffffffffffffffffffffffffffffffffffffffff16815260200190815260200160002060009054906101000a900460ff1615151415156154f9576040517f08c379a00000000000000000000000000000000000000000000000000000000081526004018080602001828103825260238152602001807f4f6e6c792061646d696e732063616e20706572666f726d20746869732061637481526020017f696f6e000000000000000000000000000000000000000000000000000000000081525060400191505060405180910390fd5b600860009054906101000a900460ff16151561557d576040517f08c379a000000000000000000000000000000000000000000000000000000000815260040180806020018281038252601b8152602001807f456d657267656e63792073746f7020697320616374697661746564000000000081525060200191505060405180910390fd5b600073ffffffffffffffffffffffffffffffffffffffff168673ffffffffffffffffffffffffffffffffffffffff1614156155bb576000905061561b565b3073ffffffffffffffffffffffffffffffffffffffff168673ffffffffffffffffffffffffffffffffffffffff1614156155f8576000905061561b565b60008511151561560b576000905061561b565b6156188686868686614e93565b90505b959450505050505600a165627a7a72305820cfa9c3d8cec6a4b9edddd1aa212b2a9ddea7a116de2dcea932abc4e6b24fb8040029",
  "source": "pragma solidity ^0.4.24;\n\nimport \"../KhanaToken.sol\";\n\n/**\n * @title Proof of Concept contract for the Khana framework, for Shiatsu Amsterdam community\n * @author David Truong <david@truong.vc>\n * @dev This is one of the first prototype deployments of Khana for the Shiatsu Amsterdam community\n */\n\ncontract ShiatsuToken is KhanaToken {\n    string public name = \"Value Of Shiatsu Token\";\n    string public symbol = \"VOS\";\n    uint8 public decimals = 18;\n}\n",
  "sourcePath": "/Users/david/Documents/Documents - Davids MacBook Pro/GitHub/KhanaFramework/Khana-prototype/Khana POC/contracts/Shiatsu/ShiatsuToken.sol",
  "compiler": {
    "name": "solc",
    "version": "0.4.25+commit.59dbf8f1.Emscripten.clang"
  },
  "schemaVersion": "3.0.1",
  "updatedAt": "2019-04-09T17:23:34.386Z",
  "devdoc": {
    "author": "David Truong <david@truong.vc>",
    "methods": {
      "addAdmin(address,string,uint256)": {
        "details": "Add an admin.",
        "params": {
          "_account": "The address of the new admin.",
          "_ipfsHash": "The IPFS hash of the latest audit log, including this action",
          "_timeStamp": "Used as a unique ID (together with msg.sender) to display details of transactions when auditing"
        }
      },
      "allowance(address,address)": {
        "details": "Function to check the amount of tokens that an owner allowed to a spender.",
        "params": {
          "_owner": "address The address which owns the funds.",
          "_spender": "address The address which will spend the funds."
        },
        "return": "A uint256 specifying the amount of tokens still available for the spender."
      },
      "approve(address,uint256)": {
        "details": "Approve the passed address to spend the specified amount of tokens on behalf of msg.sender. Beware that changing an allowance with this method brings the risk that someone may use both the old and the new allowance by unfortunate transaction ordering. One possible solution to mitigate this race condition is to first reduce the spender's allowance to 0 and set the desired value afterwards: https://github.com/ethereum/EIPs/issues/20#issuecomment-263524729",
        "params": {
          "_spender": "The address which will spend the funds.",
          "_value": "The amount of tokens to be spent."
        }
      },
      "award(address,uint256,string,uint256)": {
        "details": "Award tokens to users with relevant audit information in an IPFS file.",
        "params": {
          "_account": "The address of the user to awarded.",
          "_amount": "The amount to be awarded.",
          "_ipfsHash": "The IPFS hash of the latest audit log, which includes the details and reason for the current award of tokens.",
          "_timeStamp": "Used as a unique ID (together with msg.sender) to display details of transactions when auditing"
        }
      },
      "awardBulk(address[],uint256[],string,uint256)": {
        "details": "Does the same action as award() above but performs it as a bulk operation saving gas and improving the throughput.",
        "params": {
          "_accounts": "The addresses of the users to awarded.",
          "_amounts": "The amounts to be awarded to each address.",
          "_ipfsHash": "The IPFS hash of the latest audit log, which includes the details and reason for the current awards of tokens.",
          "_timeStamp": "Used as a unique ID (together with msg.sender) to display details of transactions when auditing"
        }
      },
      "balanceOf(address)": {
        "details": "Gets the balance of the specified address.",
        "params": {
          "_owner": "The address to query the the balance of."
        },
        "return": "An uint256 representing the amount owned by the passed address."
      },
      "bulkAddAdmin(address,uint256,address[],string,uint256)": {
        "details": "Bulk adding admins. This can only be used when a contract is brand new.",
        "params": {
          "_accounts": "The addresses of the previously valid admins.",
          "_ipfsHash": "The IPFS hash of the latest audit log, which includes the details and reason for the current awards of tokens.",
          "_oldContract": "The address of the old contract that is being migrated",
          "_oldVersion": "The Khana version of the old contract being migrated",
          "_timeStamp": "Used as a unique ID (together with msg.sender) to display details of transactions when auditing"
        }
      },
      "burn(address,uint256,string,uint256)": {
        "details": "Burn tokens from a specific account.",
        "params": {
          "_account": "The address of the account to burn tokens.",
          "_amount": "The amount of tokens to burn.",
          "_ipfsHash": "The IPFS hash of the latest audit log, including this action",
          "_timeStamp": "Used as a unique ID (together with msg.sender) to display details of transactions when auditing"
        }
      },
      "calculateSellReturn(uint256,uint256)": {
        "details": "Allow token hold to calculate the potential ETH return they will receive from selling a certain amount of tokens.",
        "params": {
          "_sellAmount": "The amount of tokens to sell.",
          "_tokenBalance": "Their entire token balance."
        }
      },
      "checkIfAdmin(address)": {
        "details": "Check if a user is an admin.",
        "params": {
          "_account": "The address of the user to check."
        },
        "return": "A bool indicating if the specified account is an admin."
      },
      "decreaseApproval(address,uint256)": {
        "details": "Decrease the amount of tokens that an owner allowed to a spender. approve should be called when allowed[_spender] == 0. To decrement allowed value is better to use this function to avoid 2 calls (and wait until the first transaction is mined) From MonolithDAO Token.sol",
        "params": {
          "_spender": "The address which will spend the funds.",
          "_subtractedValue": "The amount of tokens to decrease the allowance by."
        }
      },
      "destroy()": {
        "details": "Self destruct method"
      },
      "emergencyStop(string,uint256)": {
        "details": "An emergency stop that can only be called by the admins.",
        "params": {
          "_ipfsHash": "The IPFS hash of the latest audit log, including this action",
          "_timeStamp": "Used as a unique ID (together with msg.sender) to display details of transactions when auditing"
        },
        "return": "A bool indicating if the emergency stop was successful."
      },
      "finishMinting()": {
        "details": "Function to stop minting new tokens.",
        "return": "True if the operation was successful."
      },
      "getSupply()": {
        "details": "Get the total supply of tokens in circulation.",
        "return": "A uint256 specifying the total supply of tokens."
      },
      "increaseApproval(address,uint256)": {
        "details": "Increase the amount of tokens that an owner allowed to a spender. approve should be called when allowed[_spender] == 0. To increment allowed value is better to use this function to avoid 2 calls (and wait until the first transaction is mined) From MonolithDAO Token.sol",
        "params": {
          "_addedValue": "The amount of tokens to increase the allowance by.",
          "_spender": "The address which will spend the funds."
        }
      },
      "migrateBalancesFromOldContract(address,uint256,address[],uint256[],string,uint256)": {
        "details": "A temporary function used to mirgrate old balances. Only valid for brand new contracts.",
        "params": {
          "_accounts": "The addresses of the users to awarded.",
          "_amounts": "The amounts to be awarded to each address.",
          "_ipfsHash": "The IPFS hash of the latest audit log, which includes the details and reason for the current awards of tokens.",
          "_oldContract": "The address of the old contract that is being migrated",
          "_oldVersion": "The Khana version of the old contract being migrated",
          "_timeStamp": "Used as a unique ID (together with msg.sender) to display details of transactions when auditing"
        }
      },
      "mint(address,uint256)": {
        "details": "Function to mint tokens",
        "params": {
          "_amount": "The amount of tokens to mint.",
          "_to": "The address that will receive the minted tokens."
        },
        "return": "A boolean that indicates if the operation was successful."
      },
      "removeAdmin(address,string,uint256)": {
        "details": "Remove an admin.",
        "params": {
          "_account": "The address of the admin to be removed.",
          "_ipfsHash": "The IPFS hash of the latest audit log, including this action",
          "_timeStamp": "Used as a unique ID (together with msg.sender) to display details of transactions when auditing"
        }
      },
      "renounceOwnership()": {
        "details": "Allows the current owner to relinquish control of the contract."
      },
      "resumeContract(string,uint256)": {
        "details": "Restore contract functionality, only callable by admins.",
        "params": {
          "_ipfsHash": "The IPFS hash of the latest audit log, including this action",
          "_timeStamp": "Used as a unique ID (together with msg.sender) to display details of transactions when auditing"
        },
        "return": "A bool indicating if the resuming of minting was successful."
      },
      "sell(uint256)": {
        "details": "Allow token holders to sell their tokens in return for ETH according to a simple bonding curve.",
        "params": {
          "_amount": "The amount to sell."
        }
      },
      "setFundsContract(address,uint256)": {
        "details": "Set the 'fundsContract' to a different contract address that is used in the bonding curve.",
        "params": {
          "_contract": "The contract of the new funds contract",
          "_timeStamp": "Used as a unique ID (together with msg.sender) to display details of transactions when auditing"
        }
      },
      "totalSupply()": {
        "details": "Total number of tokens in existence"
      },
      "transfer(address,uint256)": {
        "details": "Transfer token for a specified address",
        "params": {
          "_to": "The address to transfer to.",
          "_value": "The amount to be transferred."
        }
      },
      "transferFrom(address,address,uint256)": {
        "details": "Transfer tokens from one address to another",
        "params": {
          "_from": "address The address which you want to send tokens from",
          "_to": "address The address which you want to transfer to",
          "_value": "uint256 the amount of tokens to be transferred"
        }
      },
      "transferOwnership(address)": {
        "details": "Allows the current owner to transfer control of the contract to a newOwner.",
        "params": {
          "_newOwner": "The address to transfer ownership to."
        }
      }
    },
    "title": "Proof of Concept contract for the Khana framework, for Shiatsu Amsterdam community"
  },
  "userdoc": {
    "methods": {
      "award(address,uint256,string,uint256)": {
        "notice": "The IPFS hash should always be included with any reward of tokens, to ensure auditing of the minting process can be done at anytime in the future. The event emitted must also specify the IPFS hash so that it is permanently recorded on the blockchain, and that the IPFS hash related to the most up to date audit log can be found easily. We do not want to record the IPFS hashes in an array on the blockchain as it would end up costing too much, hence we 'store' them in emitted event logs."
      },
      "awardBulk(address[],uint256[],string,uint256)": {
        "notice": "There is an assumption here that the whole bulk of awards comes for a single reason, hence single amount and ipfs hashThis is not a 'transactional' award, meaning that if there is 'wrong' address among the ones provided, the whole award will still be successful Approach is inspired by HUMAN Protocol but having better record of failing awardsThe length of accounts and amounts MUST be not higher than BULK_AWARD_MAX_COUNT_amounts must either be an array of 1 or an array with the same length as accounts"
      },
      "bulkAddAdmin(address,uint256,address[],string,uint256)": {
        "notice": "This function *may* be deprecated in the next major release, when logic is separated  from the token contract."
      },
      "burn(address,uint256,string,uint256)": {
        "notice": "This should be used very carefully, as it will affect the audit trail being saved in IPFS and the trust in being awarded the tokens. Still not sure if this function will remain enabled in future versions. For now, only the owner can burn tokens"
      },
      "calculateSellReturn(uint256,uint256)": {
        "notice": "This is also used in the 'sell' function. See above for discussion."
      },
      "emergencyStop(string,uint256)": {
        "notice": "This is an alternative to 'finishMinting()' in MintableToken.sol to enable admins to stop the minting process (not just the owner), and also disables selling the token into the bonding curve contract. Having a valid 'fundsContract' is optional to set the emergency stop."
      },
      "migrateBalancesFromOldContract(address,uint256,address[],uint256[],string,uint256)": {
        "notice": "This function *may* be deprecated in the next major release, when logic is separated  from the token contract._amounts must either be an array of 1 or an array with the same length as accounts"
      },
      "removeAdmin(address,string,uint256)": {
        "notice": "The original owner (i.e. contract creator) should always have the power to restore things, so cannot be removed as an admin. If the owner role needs to be transfered, then call 'transferOwnership()' in Ownable.sol."
      },
      "renounceOwnership()": {
        "notice": "Renouncing to ownership will leave the contract without an owner. It will not be possible to call the functions with the `onlyOwner` modifier anymore."
      },
      "resumeContract(string,uint256)": {
        "notice": "A valid 'fundsContract' must be set before resuming. This can be done via setFundsContract(address)."
      },
      "sell(uint256)": {
        "notice": "At the moment the calculation for how much ETH is returned is very simplistic. Depending on the portion of the supply they hold, they can liquidate a larger amount of the ETH 'pot', to a maximum of 50% of the pot. E.g. User A holds 25% of the supply and the ETH pot is 100 ETH. Therefore they can sell all their tokens for a maximum amount of 12.5 ETH (0.25 * 0.5 * 100 = 12.5 ETH). See 'whitepaper' for more details around game theory and how this may work as an incentive mechanism. This will likely change in the future to a more complex bonding curve implementation. Example bonding curve calculations here: https://goo.gl/jeJkV5"
      },
      "setFundsContract(address,uint256)": {
        "notice": "Only the owner can change this value."
      }
    }
  }
}